{
  "_format": "hh-sol-artifact-1",
  "contractName": "Mainchain",
  "sourceName": "contracts/Core/Mainchain.sol",
  "abi": [
    {
      "inputs": [],
      "stateMutability": "nonpayable",
      "type": "constructor"
    },
    {
      "inputs": [],
      "name": "AccessControlBadConfirmation",
      "type": "error"
    },
    {
      "inputs": [
        {
          "internalType": "address",
          "name": "account",
          "type": "address"
        },
        {
          "internalType": "bytes32",
          "name": "neededRole",
          "type": "bytes32"
        }
      ],
      "name": "AccessControlUnauthorizedAccount",
      "type": "error"
    },
    {
      "inputs": [],
      "name": "EnforcedPause",
      "type": "error"
    },
    {
      "inputs": [],
      "name": "ExpectedPause",
      "type": "error"
    },
    {
      "inputs": [
        {
          "internalType": "address",
          "name": "owner",
          "type": "address"
        }
      ],
      "name": "OwnableInvalidOwner",
      "type": "error"
    },
    {
      "inputs": [
        {
          "internalType": "address",
          "name": "account",
          "type": "address"
        }
      ],
      "name": "OwnableUnauthorizedAccount",
      "type": "error"
    },
    {
      "anonymous": false,
      "inputs": [
        {
          "indexed": false,
          "internalType": "uint256",
          "name": "udpc",
          "type": "uint256"
        }
      ],
      "name": "Approved",
      "type": "event"
    },
    {
      "anonymous": false,
      "inputs": [
        {
          "indexed": true,
          "internalType": "address",
          "name": "account",
          "type": "address"
        }
      ],
      "name": "ConsumerAdded",
      "type": "event"
    },
    {
      "anonymous": false,
      "inputs": [
        {
          "indexed": true,
          "internalType": "address",
          "name": "account",
          "type": "address"
        }
      ],
      "name": "ConsumerRemoved",
      "type": "event"
    },
    {
      "anonymous": false,
      "inputs": [
        {
          "indexed": true,
          "internalType": "address",
          "name": "account",
          "type": "address"
        }
      ],
      "name": "DesignerAdded",
      "type": "event"
    },
    {
      "anonymous": false,
      "inputs": [
        {
          "indexed": true,
          "internalType": "address",
          "name": "account",
          "type": "address"
        }
      ],
      "name": "DesignerRemoved",
      "type": "event"
    },
    {
      "anonymous": false,
      "inputs": [
        {
          "indexed": true,
          "internalType": "address",
          "name": "account",
          "type": "address"
        }
      ],
      "name": "DistributorAdded",
      "type": "event"
    },
    {
      "anonymous": false,
      "inputs": [
        {
          "indexed": true,
          "internalType": "address",
          "name": "account",
          "type": "address"
        }
      ],
      "name": "DistributorRemoved",
      "type": "event"
    },
    {
      "anonymous": false,
      "inputs": [
        {
          "indexed": false,
          "internalType": "uint256",
          "name": "udpc",
          "type": "uint256"
        }
      ],
      "name": "DrugDesignPurchased",
      "type": "event"
    },
    {
      "anonymous": false,
      "inputs": [
        {
          "indexed": false,
          "internalType": "uint256",
          "name": "slu",
          "type": "uint256"
        }
      ],
      "name": "EnvUpdated",
      "type": "event"
    },
    {
      "anonymous": false,
      "inputs": [
        {
          "indexed": false,
          "internalType": "uint256",
          "name": "slu",
          "type": "uint256"
        }
      ],
      "name": "ForSale",
      "type": "event"
    },
    {
      "anonymous": false,
      "inputs": [
        {
          "indexed": false,
          "internalType": "uint256",
          "name": "slu",
          "type": "uint256"
        }
      ],
      "name": "Manufactured",
      "type": "event"
    },
    {
      "anonymous": false,
      "inputs": [
        {
          "indexed": true,
          "internalType": "address",
          "name": "account",
          "type": "address"
        }
      ],
      "name": "ManufacturerAdded",
      "type": "event"
    },
    {
      "anonymous": false,
      "inputs": [
        {
          "indexed": true,
          "internalType": "address",
          "name": "account",
          "type": "address"
        }
      ],
      "name": "ManufacturerRemoved",
      "type": "event"
    },
    {
      "anonymous": false,
      "inputs": [
        {
          "indexed": false,
          "internalType": "uint256",
          "name": "udpc",
          "type": "uint256"
        }
      ],
      "name": "Owned",
      "type": "event"
    },
    {
      "anonymous": false,
      "inputs": [
        {
          "indexed": true,
          "internalType": "address",
          "name": "previousOwner",
          "type": "address"
        },
        {
          "indexed": true,
          "internalType": "address",
          "name": "newOwner",
          "type": "address"
        }
      ],
      "name": "OwnershipTransferred",
      "type": "event"
    },
    {
      "anonymous": false,
      "inputs": [
        {
          "indexed": false,
          "internalType": "uint256",
          "name": "slu",
          "type": "uint256"
        }
      ],
      "name": "Packed",
      "type": "event"
    },
    {
      "anonymous": false,
      "inputs": [
        {
          "indexed": false,
          "internalType": "uint256",
          "name": "udpc",
          "type": "uint256"
        }
      ],
      "name": "PartnerClosed",
      "type": "event"
    },
    {
      "anonymous": false,
      "inputs": [
        {
          "indexed": false,
          "internalType": "uint256",
          "name": "udpc",
          "type": "uint256"
        }
      ],
      "name": "PartnerGained",
      "type": "event"
    },
    {
      "anonymous": false,
      "inputs": [
        {
          "indexed": false,
          "internalType": "address",
          "name": "account",
          "type": "address"
        }
      ],
      "name": "Paused",
      "type": "event"
    },
    {
      "anonymous": false,
      "inputs": [
        {
          "indexed": false,
          "internalType": "uint256",
          "name": "pku",
          "type": "uint256"
        }
      ],
      "name": "Purchased",
      "type": "event"
    },
    {
      "anonymous": false,
      "inputs": [
        {
          "indexed": false,
          "internalType": "uint256",
          "name": "slu",
          "type": "uint256"
        }
      ],
      "name": "Received",
      "type": "event"
    },
    {
      "anonymous": false,
      "inputs": [
        {
          "indexed": true,
          "internalType": "address",
          "name": "account",
          "type": "address"
        }
      ],
      "name": "RegulatorAdded",
      "type": "event"
    },
    {
      "anonymous": false,
      "inputs": [
        {
          "indexed": true,
          "internalType": "address",
          "name": "account",
          "type": "address"
        }
      ],
      "name": "RegulatorRemoved",
      "type": "event"
    },
    {
      "anonymous": false,
      "inputs": [
        {
          "indexed": false,
          "internalType": "uint256",
          "name": "udpc",
          "type": "uint256"
        },
        {
          "indexed": false,
          "internalType": "address",
          "name": "partner",
          "type": "address"
        }
      ],
      "name": "RestrictPartnerTransfered",
      "type": "event"
    },
    {
      "anonymous": false,
      "inputs": [
        {
          "indexed": true,
          "internalType": "address",
          "name": "account",
          "type": "address"
        }
      ],
      "name": "RetailerAdded",
      "type": "event"
    },
    {
      "anonymous": false,
      "inputs": [
        {
          "indexed": true,
          "internalType": "address",
          "name": "account",
          "type": "address"
        }
      ],
      "name": "RetailerRemoved",
      "type": "event"
    },
    {
      "anonymous": false,
      "inputs": [
        {
          "indexed": true,
          "internalType": "bytes32",
          "name": "role",
          "type": "bytes32"
        },
        {
          "indexed": true,
          "internalType": "bytes32",
          "name": "previousAdminRole",
          "type": "bytes32"
        },
        {
          "indexed": true,
          "internalType": "bytes32",
          "name": "newAdminRole",
          "type": "bytes32"
        }
      ],
      "name": "RoleAdminChanged",
      "type": "event"
    },
    {
      "anonymous": false,
      "inputs": [
        {
          "indexed": true,
          "internalType": "bytes32",
          "name": "role",
          "type": "bytes32"
        },
        {
          "indexed": true,
          "internalType": "address",
          "name": "account",
          "type": "address"
        },
        {
          "indexed": true,
          "internalType": "address",
          "name": "sender",
          "type": "address"
        }
      ],
      "name": "RoleGranted",
      "type": "event"
    },
    {
      "anonymous": false,
      "inputs": [
        {
          "indexed": true,
          "internalType": "bytes32",
          "name": "role",
          "type": "bytes32"
        },
        {
          "indexed": true,
          "internalType": "address",
          "name": "account",
          "type": "address"
        },
        {
          "indexed": true,
          "internalType": "address",
          "name": "sender",
          "type": "address"
        }
      ],
      "name": "RoleRevoked",
      "type": "event"
    },
    {
      "anonymous": false,
      "inputs": [
        {
          "indexed": false,
          "internalType": "uint256",
          "name": "udpc",
          "type": "uint256"
        }
      ],
      "name": "SaleCanceled",
      "type": "event"
    },
    {
      "anonymous": false,
      "inputs": [
        {
          "indexed": false,
          "internalType": "uint256",
          "name": "slu",
          "type": "uint256"
        }
      ],
      "name": "Shipped",
      "type": "event"
    },
    {
      "anonymous": false,
      "inputs": [
        {
          "indexed": false,
          "internalType": "uint256",
          "name": "slu",
          "type": "uint256"
        }
      ],
      "name": "Sold",
      "type": "event"
    },
    {
      "anonymous": false,
      "inputs": [
        {
          "indexed": false,
          "internalType": "uint256",
          "name": "udpc",
          "type": "uint256"
        }
      ],
      "name": "TestCaseAdded",
      "type": "event"
    },
    {
      "anonymous": false,
      "inputs": [
        {
          "indexed": false,
          "internalType": "address",
          "name": "account",
          "type": "address"
        }
      ],
      "name": "Unpaused",
      "type": "event"
    },
    {
      "anonymous": false,
      "inputs": [
        {
          "indexed": false,
          "internalType": "uint256",
          "name": "udpc",
          "type": "uint256"
        }
      ],
      "name": "UpForPartnered",
      "type": "event"
    },
    {
      "anonymous": false,
      "inputs": [
        {
          "indexed": false,
          "internalType": "uint256",
          "name": "udpc",
          "type": "uint256"
        }
      ],
      "name": "UpForRestrictPartnered",
      "type": "event"
    },
    {
      "anonymous": false,
      "inputs": [
        {
          "indexed": false,
          "internalType": "uint256",
          "name": "udpc",
          "type": "uint256"
        }
      ],
      "name": "UpForSale",
      "type": "event"
    },
    {
      "inputs": [],
      "name": "CONSUMER_ROLE",
      "outputs": [
        {
          "internalType": "bytes32",
          "name": "",
          "type": "bytes32"
        }
      ],
      "stateMutability": "view",
      "type": "function"
    },
    {
      "inputs": [],
      "name": "DEFAULT_ADMIN_ROLE",
      "outputs": [
        {
          "internalType": "bytes32",
          "name": "",
          "type": "bytes32"
        }
      ],
      "stateMutability": "view",
      "type": "function"
    },
    {
      "inputs": [],
      "name": "DESIGNER_ROLE",
      "outputs": [
        {
          "internalType": "bytes32",
          "name": "",
          "type": "bytes32"
        }
      ],
      "stateMutability": "view",
      "type": "function"
    },
    {
      "inputs": [],
      "name": "DISTRIBUTOR_ROLE",
      "outputs": [
        {
          "internalType": "bytes32",
          "name": "",
          "type": "bytes32"
        }
      ],
      "stateMutability": "view",
      "type": "function"
    },
    {
      "inputs": [],
      "name": "MANUFACTURER_ROLE",
      "outputs": [
        {
          "internalType": "bytes32",
          "name": "",
          "type": "bytes32"
        }
      ],
      "stateMutability": "view",
      "type": "function"
    },
    {
      "inputs": [],
      "name": "REGULATOR_ROLE",
      "outputs": [
        {
          "internalType": "bytes32",
          "name": "",
          "type": "bytes32"
        }
      ],
      "stateMutability": "view",
      "type": "function"
    },
    {
      "inputs": [],
      "name": "RETAILER_ROLE",
      "outputs": [
        {
          "internalType": "bytes32",
          "name": "",
          "type": "bytes32"
        }
      ],
      "stateMutability": "view",
      "type": "function"
    },
    {
      "inputs": [
        {
          "internalType": "uint256",
          "name": "_slu",
          "type": "uint256"
        },
        {
          "internalType": "uint256",
          "name": "_unitPrice",
          "type": "uint256"
        }
      ],
      "name": "addDrugsLoud",
      "outputs": [],
      "stateMutability": "nonpayable",
      "type": "function"
    },
    {
      "inputs": [
        {
          "internalType": "uint256",
          "name": "_udpc",
          "type": "uint256"
        },
        {
          "internalType": "string",
          "name": "_description",
          "type": "string"
        },
        {
          "internalType": "bool",
          "name": "_isPassed",
          "type": "bool"
        },
        {
          "internalType": "string",
          "name": "_notes",
          "type": "string"
        }
      ],
      "name": "addTestCase",
      "outputs": [],
      "stateMutability": "nonpayable",
      "type": "function"
    },
    {
      "inputs": [
        {
          "internalType": "uint256",
          "name": "_udpc",
          "type": "uint256"
        },
        {
          "internalType": "string",
          "name": "_description",
          "type": "string"
        },
        {
          "internalType": "bool",
          "name": "_isPassed",
          "type": "bool"
        },
        {
          "internalType": "string",
          "name": "_notes",
          "type": "string"
        }
      ],
      "name": "addTestCaseByRegulaor",
      "outputs": [],
      "stateMutability": "nonpayable",
      "type": "function"
    },
    {
      "inputs": [],
      "name": "amIConsumer",
      "outputs": [
        {
          "internalType": "bool",
          "name": "",
          "type": "bool"
        }
      ],
      "stateMutability": "view",
      "type": "function"
    },
    {
      "inputs": [],
      "name": "amIDesigner",
      "outputs": [
        {
          "internalType": "bool",
          "name": "",
          "type": "bool"
        }
      ],
      "stateMutability": "view",
      "type": "function"
    },
    {
      "inputs": [],
      "name": "amIDistributor",
      "outputs": [
        {
          "internalType": "bool",
          "name": "",
          "type": "bool"
        }
      ],
      "stateMutability": "view",
      "type": "function"
    },
    {
      "inputs": [],
      "name": "amIManufacturer",
      "outputs": [
        {
          "internalType": "bool",
          "name": "",
          "type": "bool"
        }
      ],
      "stateMutability": "view",
      "type": "function"
    },
    {
      "inputs": [],
      "name": "amIRegulator",
      "outputs": [
        {
          "internalType": "bool",
          "name": "",
          "type": "bool"
        }
      ],
      "stateMutability": "view",
      "type": "function"
    },
    {
      "inputs": [],
      "name": "amIRetailer",
      "outputs": [
        {
          "internalType": "bool",
          "name": "",
          "type": "bool"
        }
      ],
      "stateMutability": "view",
      "type": "function"
    },
    {
      "inputs": [
        {
          "internalType": "uint256",
          "name": "_udpc",
          "type": "uint256"
        }
      ],
      "name": "approveDrug",
      "outputs": [],
      "stateMutability": "nonpayable",
      "type": "function"
    },
    {
      "inputs": [],
      "name": "assignMeAsConsumer",
      "outputs": [],
      "stateMutability": "nonpayable",
      "type": "function"
    },
    {
      "inputs": [],
      "name": "assignMeAsDesigner",
      "outputs": [],
      "stateMutability": "nonpayable",
      "type": "function"
    },
    {
      "inputs": [],
      "name": "assignMeAsDistributor",
      "outputs": [],
      "stateMutability": "nonpayable",
      "type": "function"
    },
    {
      "inputs": [],
      "name": "assignMeAsManufacturer",
      "outputs": [],
      "stateMutability": "nonpayable",
      "type": "function"
    },
    {
      "inputs": [],
      "name": "assignMeAsRegulator",
      "outputs": [],
      "stateMutability": "nonpayable",
      "type": "function"
    },
    {
      "inputs": [],
      "name": "assignMeAsRetailer",
      "outputs": [],
      "stateMutability": "nonpayable",
      "type": "function"
    },
    {
      "inputs": [
        {
          "internalType": "address",
          "name": "account",
          "type": "address"
        }
      ],
      "name": "assignThisAccountAsConsumer",
      "outputs": [],
      "stateMutability": "nonpayable",
      "type": "function"
    },
    {
      "inputs": [
        {
          "internalType": "address",
          "name": "account",
          "type": "address"
        }
      ],
      "name": "assignThisAccountAsDesigner",
      "outputs": [],
      "stateMutability": "nonpayable",
      "type": "function"
    },
    {
      "inputs": [
        {
          "internalType": "address",
          "name": "account",
          "type": "address"
        }
      ],
      "name": "assignThisAccountAsDistributor",
      "outputs": [],
      "stateMutability": "nonpayable",
      "type": "function"
    },
    {
      "inputs": [
        {
          "internalType": "address",
          "name": "account",
          "type": "address"
        }
      ],
      "name": "assignThisAccountAsManufacturer",
      "outputs": [],
      "stateMutability": "nonpayable",
      "type": "function"
    },
    {
      "inputs": [
        {
          "internalType": "address",
          "name": "account",
          "type": "address"
        }
      ],
      "name": "assignThisAccountAsRegulator",
      "outputs": [],
      "stateMutability": "nonpayable",
      "type": "function"
    },
    {
      "inputs": [
        {
          "internalType": "address",
          "name": "account",
          "type": "address"
        }
      ],
      "name": "assignThisAccountAsRetailer",
      "outputs": [],
      "stateMutability": "nonpayable",
      "type": "function"
    },
    {
      "inputs": [
        {
          "internalType": "uint256",
          "name": "_udpc",
          "type": "uint256"
        },
        {
          "internalType": "string",
          "name": "_name",
          "type": "string"
        }
      ],
      "name": "buildPartnerContract",
      "outputs": [],
      "stateMutability": "nonpayable",
      "type": "function"
    },
    {
      "inputs": [
        {
          "internalType": "uint256",
          "name": "_udpc",
          "type": "uint256"
        },
        {
          "internalType": "address payable",
          "name": "_partner",
          "type": "address"
        },
        {
          "internalType": "string",
          "name": "_name",
          "type": "string"
        },
        {
          "internalType": "uint256",
          "name": "_shares",
          "type": "uint256"
        }
      ],
      "name": "buildRestrictPartnerContract",
      "outputs": [],
      "stateMutability": "nonpayable",
      "type": "function"
    },
    {
      "inputs": [
        {
          "internalType": "uint256",
          "name": "_slu",
          "type": "uint256"
        },
        {
          "internalType": "address",
          "name": "_receiver",
          "type": "address"
        }
      ],
      "name": "buyDrugsLoud",
      "outputs": [],
      "stateMutability": "payable",
      "type": "function"
    },
    {
      "inputs": [
        {
          "internalType": "uint256",
          "name": "_udpc",
          "type": "uint256"
        }
      ],
      "name": "closeManufactPartnership",
      "outputs": [],
      "stateMutability": "nonpayable",
      "type": "function"
    },
    {
      "inputs": [
        {
          "internalType": "string",
          "name": "_designerName",
          "type": "string"
        },
        {
          "internalType": "string",
          "name": "_drugName",
          "type": "string"
        },
        {
          "internalType": "string",
          "name": "_description",
          "type": "string"
        },
        {
          "internalType": "string",
          "name": "_notes",
          "type": "string"
        }
      ],
      "name": "designDrug",
      "outputs": [],
      "stateMutability": "nonpayable",
      "type": "function"
    },
    {
      "inputs": [
        {
          "internalType": "uint256",
          "name": "_udpc",
          "type": "uint256"
        }
      ],
      "name": "featchDrugDesignMetaData",
      "outputs": [
        {
          "internalType": "string",
          "name": "name",
          "type": "string"
        },
        {
          "internalType": "string",
          "name": "description",
          "type": "string"
        },
        {
          "internalType": "string",
          "name": "notes",
          "type": "string"
        }
      ],
      "stateMutability": "view",
      "type": "function"
    },
    {
      "inputs": [
        {
          "internalType": "uint256",
          "name": "_udpc",
          "type": "uint256"
        },
        {
          "internalType": "uint256",
          "name": "_testIndex",
          "type": "uint256"
        }
      ],
      "name": "featchDrugDesignTestCases",
      "outputs": [
        {
          "internalType": "string",
          "name": "description",
          "type": "string"
        },
        {
          "internalType": "bool",
          "name": "isPassed",
          "type": "bool"
        },
        {
          "internalType": "string",
          "name": "notes",
          "type": "string"
        }
      ],
      "stateMutability": "view",
      "type": "function"
    },
    {
      "inputs": [
        {
          "internalType": "uint256",
          "name": "_udpc",
          "type": "uint256"
        }
      ],
      "name": "fetchDrugDesignData",
      "outputs": [
        {
          "internalType": "address",
          "name": "currentOwner",
          "type": "address"
        },
        {
          "internalType": "address",
          "name": "designerId",
          "type": "address"
        },
        {
          "internalType": "string",
          "name": "designerName",
          "type": "string"
        },
        {
          "internalType": "string",
          "name": "drugName",
          "type": "string"
        },
        {
          "internalType": "string",
          "name": "currentState",
          "type": "string"
        },
        {
          "internalType": "bool",
          "name": "forSale",
          "type": "bool"
        },
        {
          "internalType": "uint256",
          "name": "salePrice",
          "type": "uint256"
        },
        {
          "internalType": "string",
          "name": "partnershipState",
          "type": "string"
        },
        {
          "internalType": "uint256",
          "name": "partnershipShares",
          "type": "uint256"
        },
        {
          "internalType": "uint256",
          "name": "numberOfTests",
          "type": "uint256"
        },
        {
          "internalType": "uint256",
          "name": "numberOfManufacturers",
          "type": "uint256"
        }
      ],
      "stateMutability": "view",
      "type": "function"
    },
    {
      "inputs": [
        {
          "internalType": "uint256",
          "name": "_pku",
          "type": "uint256"
        }
      ],
      "name": "fetchDrugItemData",
      "outputs": [
        {
          "internalType": "uint256",
          "name": "_udpc",
          "type": "uint256"
        },
        {
          "internalType": "uint256",
          "name": "_slu",
          "type": "uint256"
        },
        {
          "internalType": "string",
          "name": "state",
          "type": "string"
        },
        {
          "internalType": "address",
          "name": "currentOwner",
          "type": "address"
        },
        {
          "internalType": "address",
          "name": "manufacturerId",
          "type": "address"
        },
        {
          "internalType": "address",
          "name": "distributorId",
          "type": "address"
        },
        {
          "internalType": "address",
          "name": "retailerId",
          "type": "address"
        },
        {
          "internalType": "uint256",
          "name": "price",
          "type": "uint256"
        },
        {
          "internalType": "uint256",
          "name": "packingTimeStamp",
          "type": "uint256"
        },
        {
          "internalType": "uint256",
          "name": "numberOfEnvUpdate",
          "type": "uint256"
        }
      ],
      "stateMutability": "view",
      "type": "function"
    },
    {
      "inputs": [
        {
          "internalType": "uint256",
          "name": "_slu",
          "type": "uint256"
        }
      ],
      "name": "fetchDrugLoaudData",
      "outputs": [
        {
          "internalType": "uint256",
          "name": "quantity",
          "type": "uint256"
        },
        {
          "internalType": "uint256",
          "name": "_udpc",
          "type": "uint256"
        },
        {
          "internalType": "string",
          "name": "state",
          "type": "string"
        },
        {
          "internalType": "address",
          "name": "currentOwner",
          "type": "address"
        },
        {
          "internalType": "address",
          "name": "manufacturerId",
          "type": "address"
        },
        {
          "internalType": "address",
          "name": "distributorId",
          "type": "address"
        },
        {
          "internalType": "address",
          "name": "retailerId",
          "type": "address"
        },
        {
          "internalType": "uint256",
          "name": "price",
          "type": "uint256"
        }
      ],
      "stateMutability": "view",
      "type": "function"
    },
    {
      "inputs": [
        {
          "internalType": "uint256",
          "name": "_pku",
          "type": "uint256"
        }
      ],
      "name": "fetchEnvHistory",
      "outputs": [
        {
          "internalType": "uint256",
          "name": "numberOfupdate",
          "type": "uint256"
        },
        {
          "internalType": "uint256[]",
          "name": "timeStamps",
          "type": "uint256[]"
        },
        {
          "internalType": "uint256[]",
          "name": "temprtures",
          "type": "uint256[]"
        },
        {
          "internalType": "uint256[]",
          "name": "humiditys",
          "type": "uint256[]"
        },
        {
          "internalType": "address[]",
          "name": "updaterAddresses",
          "type": "address[]"
        }
      ],
      "stateMutability": "view",
      "type": "function"
    },
    {
      "inputs": [
        {
          "internalType": "uint256",
          "name": "_slu",
          "type": "uint256"
        }
      ],
      "name": "fetchLoudPKUs",
      "outputs": [
        {
          "internalType": "uint256[]",
          "name": "loadPKUs",
          "type": "uint256[]"
        }
      ],
      "stateMutability": "view",
      "type": "function"
    },
    {
      "inputs": [
        {
          "internalType": "bytes32",
          "name": "role",
          "type": "bytes32"
        }
      ],
      "name": "getRoleAdmin",
      "outputs": [
        {
          "internalType": "bytes32",
          "name": "",
          "type": "bytes32"
        }
      ],
      "stateMutability": "view",
      "type": "function"
    },
    {
      "inputs": [
        {
          "internalType": "bytes32",
          "name": "role",
          "type": "bytes32"
        },
        {
          "internalType": "address",
          "name": "account",
          "type": "address"
        }
      ],
      "name": "grantRole",
      "outputs": [],
      "stateMutability": "nonpayable",
      "type": "function"
    },
    {
      "inputs": [
        {
          "internalType": "bytes32",
          "name": "role",
          "type": "bytes32"
        },
        {
          "internalType": "address",
          "name": "account",
          "type": "address"
        }
      ],
      "name": "hasRole",
      "outputs": [
        {
          "internalType": "bool",
          "name": "",
          "type": "bool"
        }
      ],
      "stateMutability": "view",
      "type": "function"
    },
    {
      "inputs": [
        {
          "internalType": "address",
          "name": "account",
          "type": "address"
        }
      ],
      "name": "isConsumer",
      "outputs": [
        {
          "internalType": "bool",
          "name": "",
          "type": "bool"
        }
      ],
      "stateMutability": "view",
      "type": "function"
    },
    {
      "inputs": [
        {
          "internalType": "address",
          "name": "account",
          "type": "address"
        }
      ],
      "name": "isDesigner",
      "outputs": [
        {
          "internalType": "bool",
          "name": "",
          "type": "bool"
        }
      ],
      "stateMutability": "view",
      "type": "function"
    },
    {
      "inputs": [
        {
          "internalType": "address",
          "name": "account",
          "type": "address"
        }
      ],
      "name": "isDistributor",
      "outputs": [
        {
          "internalType": "bool",
          "name": "",
          "type": "bool"
        }
      ],
      "stateMutability": "view",
      "type": "function"
    },
    {
      "inputs": [
        {
          "internalType": "address",
          "name": "account",
          "type": "address"
        }
      ],
      "name": "isManufacturer",
      "outputs": [
        {
          "internalType": "bool",
          "name": "",
          "type": "bool"
        }
      ],
      "stateMutability": "view",
      "type": "function"
    },
    {
      "inputs": [
        {
          "internalType": "uint256",
          "name": "_udpc",
          "type": "uint256"
        },
        {
          "internalType": "address",
          "name": "_manufacturerId",
          "type": "address"
        }
      ],
      "name": "isManufacturerOf",
      "outputs": [
        {
          "internalType": "bool",
          "name": "",
          "type": "bool"
        }
      ],
      "stateMutability": "view",
      "type": "function"
    },
    {
      "inputs": [
        {
          "internalType": "address",
          "name": "account",
          "type": "address"
        }
      ],
      "name": "isRegulator",
      "outputs": [
        {
          "internalType": "bool",
          "name": "",
          "type": "bool"
        }
      ],
      "stateMutability": "view",
      "type": "function"
    },
    {
      "inputs": [
        {
          "internalType": "address",
          "name": "account",
          "type": "address"
        }
      ],
      "name": "isRetailer",
      "outputs": [
        {
          "internalType": "bool",
          "name": "",
          "type": "bool"
        }
      ],
      "stateMutability": "view",
      "type": "function"
    },
    {
      "inputs": [
        {
          "internalType": "uint256",
          "name": "_udpc",
          "type": "uint256"
        },
        {
          "internalType": "uint256",
          "name": "quantity",
          "type": "uint256"
        }
      ],
      "name": "manufacturDrugsLoud",
      "outputs": [],
      "stateMutability": "nonpayable",
      "type": "function"
    },
    {
      "inputs": [
        {
          "internalType": "uint256",
          "name": "_udpc",
          "type": "uint256"
        },
        {
          "internalType": "address",
          "name": "_manufacturerId",
          "type": "address"
        }
      ],
      "name": "manufacturerSharesOf",
      "outputs": [
        {
          "internalType": "uint256",
          "name": "",
          "type": "uint256"
        }
      ],
      "stateMutability": "view",
      "type": "function"
    },
    {
      "inputs": [
        {
          "internalType": "uint256",
          "name": "_udpc",
          "type": "uint256"
        },
        {
          "internalType": "uint256",
          "name": "_shares",
          "type": "uint256"
        }
      ],
      "name": "openManufactPartnership",
      "outputs": [],
      "stateMutability": "nonpayable",
      "type": "function"
    },
    {
      "inputs": [],
      "name": "owner",
      "outputs": [
        {
          "internalType": "address",
          "name": "",
          "type": "address"
        }
      ],
      "stateMutability": "view",
      "type": "function"
    },
    {
      "inputs": [
        {
          "internalType": "uint256",
          "name": "_slu",
          "type": "uint256"
        }
      ],
      "name": "packDrugsLoud",
      "outputs": [],
      "stateMutability": "nonpayable",
      "type": "function"
    },
    {
      "inputs": [],
      "name": "paused",
      "outputs": [
        {
          "internalType": "bool",
          "name": "",
          "type": "bool"
        }
      ],
      "stateMutability": "view",
      "type": "function"
    },
    {
      "inputs": [
        {
          "internalType": "uint256",
          "name": "_pku",
          "type": "uint256"
        }
      ],
      "name": "purchaseDrug",
      "outputs": [],
      "stateMutability": "payable",
      "type": "function"
    },
    {
      "inputs": [
        {
          "internalType": "uint256",
          "name": "_udpc",
          "type": "uint256"
        }
      ],
      "name": "purchaseDrugDesign",
      "outputs": [],
      "stateMutability": "payable",
      "type": "function"
    },
    {
      "inputs": [
        {
          "internalType": "uint256",
          "name": "_slu",
          "type": "uint256"
        }
      ],
      "name": "receiveDrugsLoud",
      "outputs": [],
      "stateMutability": "nonpayable",
      "type": "function"
    },
    {
      "inputs": [],
      "name": "renounceMeFromConsumer",
      "outputs": [],
      "stateMutability": "nonpayable",
      "type": "function"
    },
    {
      "inputs": [],
      "name": "renounceMeFromDesigner",
      "outputs": [],
      "stateMutability": "nonpayable",
      "type": "function"
    },
    {
      "inputs": [],
      "name": "renounceMeFromDistributor",
      "outputs": [],
      "stateMutability": "nonpayable",
      "type": "function"
    },
    {
      "inputs": [],
      "name": "renounceMeFromManufacturer",
      "outputs": [],
      "stateMutability": "nonpayable",
      "type": "function"
    },
    {
      "inputs": [],
      "name": "renounceMeFromRegulator",
      "outputs": [],
      "stateMutability": "nonpayable",
      "type": "function"
    },
    {
      "inputs": [],
      "name": "renounceMeFromRetailer",
      "outputs": [],
      "stateMutability": "nonpayable",
      "type": "function"
    },
    {
      "inputs": [],
      "name": "renounceOwnership",
      "outputs": [],
      "stateMutability": "nonpayable",
      "type": "function"
    },
    {
      "inputs": [
        {
          "internalType": "bytes32",
          "name": "role",
          "type": "bytes32"
        },
        {
          "internalType": "address",
          "name": "callerConfirmation",
          "type": "address"
        }
      ],
      "name": "renounceRole",
      "outputs": [],
      "stateMutability": "nonpayable",
      "type": "function"
    },
    {
      "inputs": [
        {
          "internalType": "address",
          "name": "account",
          "type": "address"
        }
      ],
      "name": "renounceThisAccountFromConsumer",
      "outputs": [],
      "stateMutability": "nonpayable",
      "type": "function"
    },
    {
      "inputs": [
        {
          "internalType": "address",
          "name": "account",
          "type": "address"
        }
      ],
      "name": "renounceThisAccountFromDesigner",
      "outputs": [],
      "stateMutability": "nonpayable",
      "type": "function"
    },
    {
      "inputs": [
        {
          "internalType": "address",
          "name": "account",
          "type": "address"
        }
      ],
      "name": "renounceThisAccountFromDistributor",
      "outputs": [],
      "stateMutability": "nonpayable",
      "type": "function"
    },
    {
      "inputs": [
        {
          "internalType": "address",
          "name": "account",
          "type": "address"
        }
      ],
      "name": "renounceThisAccountFromManufacturer",
      "outputs": [],
      "stateMutability": "nonpayable",
      "type": "function"
    },
    {
      "inputs": [
        {
          "internalType": "address",
          "name": "account",
          "type": "address"
        }
      ],
      "name": "renounceThisAccountFromRegulator",
      "outputs": [],
      "stateMutability": "nonpayable",
      "type": "function"
    },
    {
      "inputs": [
        {
          "internalType": "address",
          "name": "account",
          "type": "address"
        }
      ],
      "name": "renounceThisAccountFromRetailer",
      "outputs": [],
      "stateMutability": "nonpayable",
      "type": "function"
    },
    {
      "inputs": [
        {
          "internalType": "uint256",
          "name": "_udpc",
          "type": "uint256"
        }
      ],
      "name": "restrictManufactPartnership",
      "outputs": [],
      "stateMutability": "nonpayable",
      "type": "function"
    },
    {
      "inputs": [
        {
          "internalType": "bytes32",
          "name": "role",
          "type": "bytes32"
        },
        {
          "internalType": "address",
          "name": "account",
          "type": "address"
        }
      ],
      "name": "revokeRole",
      "outputs": [],
      "stateMutability": "nonpayable",
      "type": "function"
    },
    {
      "inputs": [
        {
          "internalType": "uint256",
          "name": "_slu",
          "type": "uint256"
        }
      ],
      "name": "shipDrugsLoud",
      "outputs": [],
      "stateMutability": "nonpayable",
      "type": "function"
    },
    {
      "inputs": [
        {
          "internalType": "bytes4",
          "name": "interfaceId",
          "type": "bytes4"
        }
      ],
      "name": "supportsInterface",
      "outputs": [
        {
          "internalType": "bool",
          "name": "",
          "type": "bool"
        }
      ],
      "stateMutability": "view",
      "type": "function"
    },
    {
      "inputs": [
        {
          "internalType": "address",
          "name": "newOwner",
          "type": "address"
        }
      ],
      "name": "transferOwnership",
      "outputs": [],
      "stateMutability": "nonpayable",
      "type": "function"
    },
    {
      "inputs": [
        {
          "internalType": "uint256",
          "name": "_udpc",
          "type": "uint256"
        },
        {
          "internalType": "uint256",
          "name": "_price",
          "type": "uint256"
        }
      ],
      "name": "upForSale",
      "outputs": [],
      "stateMutability": "nonpayable",
      "type": "function"
    },
    {
      "inputs": [
        {
          "internalType": "uint256",
          "name": "_slu",
          "type": "uint256"
        },
        {
          "internalType": "uint256",
          "name": "_humidity",
          "type": "uint256"
        },
        {
          "internalType": "uint256",
          "name": "_temprture",
          "type": "uint256"
        }
      ],
      "name": "updateDrugsLoudShippmentEnv",
      "outputs": [],
      "stateMutability": "nonpayable",
      "type": "function"
    },
    {
      "inputs": [
        {
          "internalType": "uint256",
          "name": "_slu",
          "type": "uint256"
        },
        {
          "internalType": "uint256",
          "name": "_humidity",
          "type": "uint256"
        },
        {
          "internalType": "uint256",
          "name": "_temprture",
          "type": "uint256"
        }
      ],
      "name": "updateDrugsLoudStockEnv",
      "outputs": [],
      "stateMutability": "nonpayable",
      "type": "function"
    },
    {
      "inputs": [],
      "name": "whoAmI",
      "outputs": [
        {
          "internalType": "bool",
          "name": "consumer",
          "type": "bool"
        },
        {
          "internalType": "bool",
          "name": "designer",
          "type": "bool"
        },
        {
          "internalType": "bool",
          "name": "distributor",
          "type": "bool"
        },
        {
          "internalType": "bool",
          "name": "manufacturer",
          "type": "bool"
        },
        {
          "internalType": "bool",
          "name": "regulator",
          "type": "bool"
        },
        {
          "internalType": "bool",
          "name": "retailer",
          "type": "bool"
        }
      ],
      "stateMutability": "view",
      "type": "function"
    }
  ],
  "bytecode": "0x6101406040527fee129e6fb492ad85e7c4d99e24facc6412bb957226fd6e1ff5efa1d2c0569e9c6080908152507f90b2805f180e032c7264ccc730b08b69796f06e8c50ab1ad71a632183810bac960a0908152507f85faced7bde13e1a7dad704b895f006e704f207617d68166b31ba2d79624862d60c0908152507f6659d833875b88922d2576dad6c137a09ba676496bb2010bf8a72397792167a060e0908152507f3c801090d1d22d8d8fe9837ef6d8ab50dfdff14e17d0039e333d4d7138ed50b3610100908152507f27d5ccc46db01bfa5691ce092fe276221c6cd0aa6d05765b52c3ddecfa70421a61012090815250348015620000fe57600080fd5b5033600073ffffffffffffffffffffffffffffffffffffffff168173ffffffffffffffffffffffffffffffffffffffff1603620001755760006040517f1e4fbdf70000000000000000000000000000000000000000000000000000000081526004016200016c9190620006c9565b60405180910390fd5b62000186816200022560201b60201c565b5060008060146101000a81548160ff021916908315150217905550600060028190555060006001819055506000600581905550620001ca33620002e960201b60201c565b620001db336200034460201b60201c565b620001ec336200039f60201b60201c565b620001fd33620003fa60201b60201c565b6200020e336200045560201b60201c565b6200021f33620004b160201b60201c565b620006e6565b60008060009054906101000a900473ffffffffffffffffffffffffffffffffffffffff169050816000806101000a81548173ffffffffffffffffffffffffffffffffffffffff021916908373ffffffffffffffffffffffffffffffffffffffff1602179055508173ffffffffffffffffffffffffffffffffffffffff168173ffffffffffffffffffffffffffffffffffffffff167f8be0079c531659141344cd1fd0a4f28419497f9722a3daafe3b4186f6b6457e060405160405180910390a35050565b620002fd608051826200050d60201b60201c565b508073ffffffffffffffffffffffffffffffffffffffff167f28b26e7a3d20aedbc5f8f2ebf7da671c0491723a2b78f47a097b0e46dee0714260405160405180910390a250565b6200035860a051826200050d60201b60201c565b508073ffffffffffffffffffffffffffffffffffffffff167f97069a05372df648feb174cc125711b2c72a81450a1ab2769c8faf49917d7fd260405160405180910390a250565b620003b360c051826200050d60201b60201c565b508073ffffffffffffffffffffffffffffffffffffffff167fddbf200aa634dc3fb81cfd68583dd1040d1c751d335e1d86b631bde3e977fea860405160405180910390a250565b6200040e60e051826200050d60201b60201c565b508073ffffffffffffffffffffffffffffffffffffffff167f561138658ca49a8540dc70dcfe64c9026c1c5b9344642242dd6562970f9c127860405160405180910390a250565b6200046a61010051826200050d60201b60201c565b508073ffffffffffffffffffffffffffffffffffffffff167f2860b5ba44f983f8f363ee6eeb3c24cbca3096803fbdd5129b9e253f01cac07660405160405180910390a250565b620004c661012051826200050d60201b60201c565b508073ffffffffffffffffffffffffffffffffffffffff167f71ae26cad02663e3d92efd6ec56031a80d74a20c0ab4183faa8bf262261c9baa60405160405180910390a250565b60006200052183836200061160201b60201c565b620006065760016007600085815260200190815260200160002060000160008473ffffffffffffffffffffffffffffffffffffffff1673ffffffffffffffffffffffffffffffffffffffff16815260200190815260200160002060006101000a81548160ff021916908315150217905550620005a26200067c60201b60201c565b73ffffffffffffffffffffffffffffffffffffffff168273ffffffffffffffffffffffffffffffffffffffff16847f2f8788117e7eff1d82e926ec794901d17c78024a50270940304540a733656f0d60405160405180910390a4600190506200060b565b600090505b92915050565b60006007600084815260200190815260200160002060000160008373ffffffffffffffffffffffffffffffffffffffff1673ffffffffffffffffffffffffffffffffffffffff16815260200190815260200160002060009054906101000a900460ff16905092915050565b600033905090565b600073ffffffffffffffffffffffffffffffffffffffff82169050919050565b6000620006b18262000684565b9050919050565b620006c381620006a4565b82525050565b6000602082019050620006e06000830184620006b8565b92915050565b60805160a05160c05160e05161010051610120516184dd620007de600039600081816114680152818161176f01528181611f7b01528181615cf60152616197015260008181611400015281816117da01528181611f0401528181615c85015261620801526000818161143501528181612b5501528181613d27015281816158a90152615c14015260008181612abc015281816138770152818161459c015281816151960152615ba3015260008181611fae01528181612c7e01528181613cfe01528181615125015261591a015260008181611d71015281816129a301528181612b7e01528181614fa40152615d6701526184dd6000f3fe6080604052600436106104945760003560e01c806384c1dd0f11610260578063c7bead1e11610144578063e32ba995116100c1578063ef20147711610085578063ef2014771461118b578063f0bd87cc146111a2578063f2fde38b146111cd578063f301e04a146111f6578063fb3221111461121f578063fc4292521461123b57610494565b8063e32ba995146110b3578063e63d2ee9146110dc578063e716a4d714611105578063e8f9a7f41461114b578063eda0baa81461117457610494565b8063d8f271a911610108578063d8f271a914610fac578063d8fcc6f814610fe9578063da91254c1461102d578063df064ad81461105d578063e1d6f86f1461108857610494565b8063c7bead1e14610ed9578063c82d9afc14610f18578063cf19667114610f2f578063d331029714610f5a578063d547741f14610f8357610494565b8063a217fddf116101dd578063ac930466116101a1578063ac93046614610df5578063b442510b14610e1e578063b635053614610e47578063bb656d3114610e70578063c3c7b82c14610e99578063c4f2201114610ec257610494565b8063a217fddf14610d1e578063a40e210f14610d49578063a4a418b114610d60578063a4f03e2314610d77578063a7d2504014610db457610494565b806391d148541161022457806391d1485414610c46578063965288b014610c835780639af687a614610cae5780639ce6f51c14610cd95780639f17968214610cf557610494565b806384c1dd0f14610b7557806385c9c6e714610b9e578063879581ba14610bc75780638da5cb5b14610bde5780638f0c86fa14610c0957610494565b806348c149bd116103875780635da09b8811610304578063708e345c116102c8578063708e345c14610a8a578063715018a614610ab3578063719c2e5214610aca578063784167af14610af3578063834ff73914610b1c57806383be91e514610b5957610494565b80635da09b88146109b95780635ec5b728146109f657806365c7c33114610a21578063693082c414610a4a57806369d095c114610a7357610494565b806355edd88b1161034b57806355edd88b1461090e5780635819347514610925578063593451ec1461094e5780635c975abb146109775780635cb8ac82146109a257610494565b806348c149bd1461083d5780634bc02da6146108545780634f26ba161461087f5780635043ceaf146108a857806354fc9169146108d157610494565b80632115e7bf11610415578063374a2409116103d9578063374a2409146107465780633f968f9e1461076f578063424ee0db146107ac5780634314d44d146107d55780634346fac5146107fe57610494565b80632115e7bf14610661578063248a9ca31461068c5780632f2ff15d146106c957806335c96e97146106f257806336568abe1461071d57610494565b806314dbc7e11161045c57806314dbc7e11461057e57806317d4a491146105a75780631d375b0c146105e45780631e8acbeb1461060f578063204849441461063857610494565b806301715f751461049957806301ffc9a7146104d6578063118f74f5146105135780631395d0f21461052a578063144bf58914610553575b600080fd5b3480156104a557600080fd5b506104c060048036038101906104bb9190616ae6565b611282565b6040516104cd9190616b41565b60405180910390f35b3480156104e257600080fd5b506104fd60048036038101906104f89190616bb4565b61131d565b60405161050a9190616b41565b60405180910390f35b34801561051f57600080fd5b50610528611397565b005b34801561053657600080fd5b50610551600480360381019061054c9190616be1565b6113a2565b005b34801561055f57600080fd5b506105686113fe565b6040516105759190616c27565b60405180910390f35b34801561058a57600080fd5b506105a560048036038101906105a09190616c42565b611422565b005b3480156105b357600080fd5b506105ce60048036038101906105c99190616c42565b61142e565b6040516105db9190616b41565b60405180910390f35b3480156105f057600080fd5b506105f9611461565b6040516106069190616b41565b60405180910390f35b34801561061b57600080fd5b5061063660048036038101906106319190616de1565b611492565b005b34801561064457600080fd5b5061065f600480360381019061065a9190616c42565b611761565b005b34801561066d57600080fd5b5061067661176d565b6040516106839190616c27565b60405180910390f35b34801561069857600080fd5b506106b360048036038101906106ae9190616eac565b611791565b6040516106c09190616c27565b60405180910390f35b3480156106d557600080fd5b506106f060048036038101906106eb9190616ed9565b6117b1565b005b3480156106fe57600080fd5b506107076117d3565b6040516107149190616b41565b60405180910390f35b34801561072957600080fd5b50610744600480360381019061073f9190616ed9565b611804565b005b34801561075257600080fd5b5061076d60048036038101906107689190616be1565b61187f565b005b34801561077b57600080fd5b5061079660048036038101906107919190616ae6565b6119c1565b6040516107a39190616f28565b60405180910390f35b3480156107b857600080fd5b506107d360048036038101906107ce9190616f43565b611a5c565b005b3480156107e157600080fd5b506107fc60048036038101906107f79190616de1565b611abe565b005b34801561080a57600080fd5b5061082560048036038101906108209190616be1565b611b18565b60405161083493929190617099565b60405180910390f35b34801561084957600080fd5b50610852611d64565b005b34801561086057600080fd5b50610869611d6f565b6040516108769190616c27565b60405180910390f35b34801561088b57600080fd5b506108a660048036038101906108a19190616c42565b611d93565b005b3480156108b457600080fd5b506108cf60048036038101906108ca91906170e5565b611d9f565b005b3480156108dd57600080fd5b506108f860048036038101906108f39190616c42565b611efd565b6040516109059190616b41565b60405180910390f35b34801561091a57600080fd5b50610923611f30565b005b34801561093157600080fd5b5061094c60048036038101906109479190616c42565b611f3b565b005b34801561095a57600080fd5b5061097560048036038101906109709190616c42565b611f47565b005b34801561098357600080fd5b5061098c611f53565b6040516109999190616b41565b60405180910390f35b3480156109ae57600080fd5b506109b7611f69565b005b3480156109c557600080fd5b506109e060048036038101906109db9190616c42565b611f74565b6040516109ed9190616b41565b60405180910390f35b348015610a0257600080fd5b50610a0b611fa7565b604051610a189190616b41565b60405180910390f35b348015610a2d57600080fd5b50610a486004803603810190610a4391906170e5565b611fd8565b005b348015610a5657600080fd5b50610a716004803603810190610a6c9190617125565b61217d565b005b348015610a7f57600080fd5b50610a886124b8565b005b348015610a9657600080fd5b50610ab16004803603810190610aac9190616c42565b6124c3565b005b348015610abf57600080fd5b50610ac86124cf565b005b348015610ad657600080fd5b50610af16004803603810190610aec9190617125565b6124e3565b005b348015610aff57600080fd5b50610b1a6004803603810190610b1591906170e5565b612841565b005b348015610b2857600080fd5b50610b436004803603810190610b3e9190616c42565b61299c565b604051610b509190616b41565b60405180910390f35b610b736004803603810190610b6e9190616be1565b6129cf565b005b348015610b8157600080fd5b50610b9c6004803603810190610b979190616c42565b612a69565b005b348015610baa57600080fd5b50610bc56004803603810190610bc09190616c42565b612a75565b005b348015610bd357600080fd5b50610bdc612a81565b005b348015610bea57600080fd5b50610bf3612a8c565b604051610c009190617187565b60405180910390f35b348015610c1557600080fd5b50610c306004803603810190610c2b9190616c42565b612ab5565b604051610c3d9190616b41565b60405180910390f35b348015610c5257600080fd5b50610c6d6004803603810190610c689190616ed9565b612ae8565b604051610c7a9190616b41565b60405180910390f35b348015610c8f57600080fd5b50610c98612b53565b604051610ca59190616c27565b60405180910390f35b348015610cba57600080fd5b50610cc3612b77565b604051610cd09190616b41565b60405180910390f35b610cf36004803603810190610cee9190616be1565b612ba8565b005b348015610d0157600080fd5b50610d1c6004803603810190610d1791906171a2565b612bfc565b005b348015610d2a57600080fd5b50610d33612c5a565b604051610d409190616c27565b60405180910390f35b348015610d5557600080fd5b50610d5e612c61565b005b348015610d6c57600080fd5b50610d75612c6c565b005b348015610d8357600080fd5b50610d9e6004803603810190610d999190616c42565b612c77565b604051610dab9190616b41565b60405180910390f35b348015610dc057600080fd5b50610ddb6004803603810190610dd69190616be1565b612caa565b604051610dec95949392919061737a565b60405180910390f35b348015610e0157600080fd5b50610e1c6004803603810190610e179190616c42565b612f60565b005b348015610e2a57600080fd5b50610e456004803603810190610e409190616be1565b612f6c565b005b348015610e5357600080fd5b50610e6e6004803603810190610e6991906170e5565b613187565b005b348015610e7c57600080fd5b50610e976004803603810190610e929190616c42565b6133be565b005b348015610ea557600080fd5b50610ec06004803603810190610ebb9190616be1565b6133ca565b005b348015610ece57600080fd5b50610ed7613600565b005b348015610ee557600080fd5b50610f006004803603810190610efb91906170e5565b61360b565b604051610f0f939291906173e9565b60405180910390f35b348015610f2457600080fd5b50610f2d613865565b005b348015610f3b57600080fd5b50610f44613870565b604051610f519190616b41565b60405180910390f35b348015610f6657600080fd5b50610f816004803603810190610f7c9190616be1565b6138a1565b005b348015610f8f57600080fd5b50610faa6004803603810190610fa59190616ed9565b613b17565b005b348015610fb857600080fd5b50610fd36004803603810190610fce9190616be1565b613b39565b604051610fe0919061742e565b60405180910390f35b348015610ff557600080fd5b50611010600480360381019061100b9190616be1565b613ba4565b604051611024989796959493929190617450565b60405180910390f35b34801561103957600080fd5b50611042613caf565b604051611054969594939291906174d5565b60405180910390f35b34801561106957600080fd5b50611072613cfc565b60405161107f9190616c27565b60405180910390f35b34801561109457600080fd5b5061109d613d20565b6040516110aa9190616b41565b60405180910390f35b3480156110bf57600080fd5b506110da60048036038101906110d59190617574565b613d51565b005b3480156110e857600080fd5b5061110360048036038101906110fe9190616be1565b613f77565b005b34801561111157600080fd5b5061112c60048036038101906111279190616be1565b6140db565b6040516111429a999897969594939291906175f7565b60405180910390f35b34801561115757600080fd5b50611172600480360381019061116d9190616c42565b614578565b005b34801561118057600080fd5b50611189614584565b005b34801561119757600080fd5b506111a061458f565b005b3480156111ae57600080fd5b506111b761459a565b6040516111c49190616c27565b60405180910390f35b3480156111d957600080fd5b506111f460048036038101906111ef9190616c42565b6145be565b005b34801561120257600080fd5b5061121d60048036038101906112189190616c42565b614644565b005b61123960048036038101906112349190616ae6565b614650565b005b34801561124757600080fd5b50611262600480360381019061125d9190616be1565b6148cd565b6040516112799b9a9998979695949392919061769a565b60405180910390f35b600060066000848152602001908152602001600020600b0173__$7b761d8731322031916806c1afa4b7efe5$__6362a4ba989091846040518363ffffffff1660e01b81526004016112d4929190617777565b602060405180830381865af41580156112f1573d6000803e3d6000fd5b505050506040513d601f19601f8201168201806040525081019061131591906177b5565b905092915050565b60007f7965db0b000000000000000000000000000000000000000000000000000000007bffffffffffffffffffffffffffffffffffffffffffffffffffffffff1916827bffffffffffffffffffffffffffffffffffffffffffffffffffffffff19161480611390575061138f82614f35565b5b9050919050565b6113a033614f9f565b565b6113ab33611efd565b6113ea576040517f08c379a00000000000000000000000000000000000000000000000000000000081526004016113e19061782e565b60405180910390fd5b6113f2615010565b6113fb81615051565b50565b7f000000000000000000000000000000000000000000000000000000000000000081565b61142b81615120565b50565b600061145a7f000000000000000000000000000000000000000000000000000000000000000083612ae8565b9050919050565b600061148d7f000000000000000000000000000000000000000000000000000000000000000033612ae8565b905090565b833373ffffffffffffffffffffffffffffffffffffffff166006600083815260200190815260200160002060010160009054906101000a900473ffffffffffffffffffffffffffffffffffffffff1673ffffffffffffffffffffffffffffffffffffffff161461150157600080fd5b600554851115611546576040517f08c379a000000000000000000000000000000000000000000000000000000000815260040161153d9061789a565b60405180910390fd5b60006040518060a001604052803373ffffffffffffffffffffffffffffffffffffffff16815260200142815260200185151581526020018681526020018481525090508060066000888152602001908152602001600020600a016000600660008a815260200190815260200160002060090154815260200190815260200160002060008201518160000160006101000a81548173ffffffffffffffffffffffffffffffffffffffff021916908373ffffffffffffffffffffffffffffffffffffffff1602179055506020820151816001015560408201518160020160006101000a81548160ff021916908315150217905550606082015181600301908161164d9190617ac6565b5060808201518160040190816116639190617ac6565b5090505060066000878152602001908152602001600020600901600081548092919061168e90617bc7565b9190505550600060038111156116a7576116a6617c0f565b5b6006600088815260200190815260200160002060040160009054906101000a900460ff1660038111156116dd576116dc617c0f565b5b036117225760016006600088815260200190815260200160002060040160006101000a81548160ff0219169083600381111561171c5761171b617c0f565b5b02179055505b7f81d5f9bced9b9d1723f40796f43346ab2f3d2147b09cc27e573f3eb3b5875864866040516117519190616f28565b60405180910390a1505050505050565b61176a81615191565b50565b7f000000000000000000000000000000000000000000000000000000000000000081565b600060076000838152602001908152602001600020600101549050919050565b6117ba82611791565b6117c381615202565b6117cd8383615216565b50505050565b60006117ff7f000000000000000000000000000000000000000000000000000000000000000033612ae8565b905090565b61180c615308565b73ffffffffffffffffffffffffffffffffffffffff168173ffffffffffffffffffffffffffffffffffffffff1614611870576040517f6697b23200000000000000000000000000000000000000000000000000000000815260040160405180910390fd5b61187a8282615310565b505050565b806002600381111561189457611893617c0f565b5b6006600083815260200190815260200160002060040160009054906101000a900460ff1660038111156118ca576118c9617c0f565b5b146118d457600080fd5b813373ffffffffffffffffffffffffffffffffffffffff166006600083815260200190815260200160002060010160009054906101000a900473ffffffffffffffffffffffffffffffffffffffff1673ffffffffffffffffffffffffffffffffffffffff161461194357600080fd5b600060066000858152602001908152602001600020600b0160020160006101000a81548160ff021916908360028111156119805761197f617c0f565b5b02179055507fecd07b3c3d2d5a97909bbc0b960a7481613849c91ef6c3a8b139c3b7c4c8083b836040516119b49190616f28565b60405180910390a1505050565b600060066000848152602001908152602001600020600b0173__$7b761d8731322031916806c1afa4b7efe5$__63ce095fdd9091846040518363ffffffff1660e01b8152600401611a13929190617777565b602060405180830381865af4158015611a30573d6000803e3d6000fd5b505050506040513d601f19601f82011682018060405250810190611a549190617c53565b905092915050565b611a6533612c77565b611aa4576040517f08c379a0000000000000000000000000000000000000000000000000000000008152600401611a9b90617ccc565b60405180910390fd5b611aac615010565b611ab884848484615403565b50505050565b611ac733611efd565b611b06576040517f08c379a0000000000000000000000000000000000000000000000000000000008152600401611afd9061782e565b60405180910390fd5b611b1284848484615645565b50505050565b6060806060600554841115611b62576040517f08c379a0000000000000000000000000000000000000000000000000000000008152600401611b5990617d38565b60405180910390fd5b600660008581526020019081526020016000206005016000016006600086815260200190815260200160002060050160010160066000878152602001908152602001600020600501600201828054611bb9906178e9565b80601f0160208091040260200160405190810160405280929190818152602001828054611be5906178e9565b8015611c325780601f10611c0757610100808354040283529160200191611c32565b820191906000526020600020905b815481529060010190602001808311611c1557829003601f168201915b50505050509250818054611c45906178e9565b80601f0160208091040260200160405190810160405280929190818152602001828054611c71906178e9565b8015611cbe5780601f10611c9357610100808354040283529160200191611cbe565b820191906000526020600020905b815481529060010190602001808311611ca157829003601f168201915b50505050509150808054611cd1906178e9565b80601f0160208091040260200160405190810160405280929190818152602001828054611cfd906178e9565b8015611d4a5780601f10611d1f57610100808354040283529160200191611d4a565b820191906000526020600020905b815481529060010190602001808311611d2d57829003601f168201915b505050505090508093508194508295505050509193909250565b611d6d336158a4565b565b7f000000000000000000000000000000000000000000000000000000000000000081565b611d9c81615915565b50565b611da83361142e565b611de7576040517f08c379a0000000000000000000000000000000000000000000000000000000008152600401611dde90617da4565b60405180910390fd5b8160066000828152602001908152602001600020600b0173__$7b761d8731322031916806c1afa4b7efe5$__6362a4ba989091336040518363ffffffff1660e01b8152600401611e38929190617777565b602060405180830381865af4158015611e55573d6000803e3d6000fd5b505050506040513d601f19601f82011682018060405250810190611e7991906177b5565b80611ee557503373ffffffffffffffffffffffffffffffffffffffff166006600083815260200190815260200160002060010160009054906101000a900473ffffffffffffffffffffffffffffffffffffffff1673ffffffffffffffffffffffffffffffffffffffff16145b611eee57600080fd5b611ef88383615986565b505050565b6000611f297f000000000000000000000000000000000000000000000000000000000000000083612ae8565b9050919050565b611f3933615b9e565b565b611f4481615c0f565b50565b611f50816158a4565b50565b60008060149054906101000a900460ff16905090565b611f7233615c80565b565b6000611fa07f000000000000000000000000000000000000000000000000000000000000000083612ae8565b9050919050565b6000611fd37f000000000000000000000000000000000000000000000000000000000000000033612ae8565b905090565b8160026003811115611fed57611fec617c0f565b5b6006600083815260200190815260200160002060040160009054906101000a900460ff16600381111561202357612022617c0f565b5b1461202d57600080fd5b823373ffffffffffffffffffffffffffffffffffffffff166006600083815260200190815260200160002060010160009054906101000a900473ffffffffffffffffffffffffffffffffffffffff1673ffffffffffffffffffffffffffffffffffffffff161461209c57600080fd5b60648311156120e0576040517f08c379a00000000000000000000000000000000000000000000000000000000081526004016120d790617e10565b60405180910390fd5b8260066000868152602001908152602001600020600b0160010181905550600160066000868152602001908152602001600020600b0160020160006101000a81548160ff0219169083600281111561213b5761213a617c0f565b5b02179055507f7757356b46f23cb3ef1647e45863d1afc6f69c56c39b4afc70f3e2cea14c3a9d8460405161216f9190616f28565b60405180910390a150505050565b826000600460008381526020019081526020016000206000815481106121a6576121a5617e30565b5b90600052602060002001549050600560068111156121c7576121c6617c0f565b5b6003600083815260200190815260200160002060030160009054906101000a900460ff1660068111156121fd576121fc617c0f565b5b1461220757600080fd5b846000600460008381526020019081526020016000206000815481106122305761222f617e30565b5b9060005260206000200154905060003373ffffffffffffffffffffffffffffffffffffffff166003600084815260200190815260200160002060060160009054906101000a900473ffffffffffffffffffffffffffffffffffffffff1673ffffffffffffffffffffffffffffffffffffffff16149050806122b057600080fd5b6000600460008a8152602001908152602001600020805490509050600060405180608001604052804281526020018a81526020018981526020013373ffffffffffffffffffffffffffffffffffffffff16815250905060005b82811015612474576000600460008d8152602001908152602001600020828154811061233857612337617e30565b5b9060005260206000200154905060068081111561235857612357617c0f565b5b6003600083815260200190815260200160002060030160009054906101000a900460ff16600681111561238e5761238d617c0f565b5b14612466578260036000838152602001908152602001600020600901600060036000858152602001908152602001600020600a0154815260200190815260200160002060008201518160000155602082015181600101556040820151816002015560608201518160030160006101000a81548173ffffffffffffffffffffffffffffffffffffffff021916908373ffffffffffffffffffffffffffffffffffffffff16021790555090505060036000828152602001908152602001600020600a01600081548092919061246090617bc7565b91905055505b508080600101915050612309565b507f332d23c9d7e8e885c3f1696ae3b424351c1e9e2a4cc531396d6848b79a0dac988a6040516124a49190616f28565b60405180910390a150505050505050505050565b6124c133615cf1565b565b6124cc81615d62565b50565b6124d7615dd3565b6124e16000615e5a565b565b8260006004600083815260200190815260200160002060008154811061250c5761250b617e30565b5b906000526020600020015490506004600681111561252d5761252c617c0f565b5b6003600083815260200190815260200160002060030160009054906101000a900460ff16600681111561256357612562617c0f565b5b1461256d57600080fd5b8460006004600083815260200190815260200160002060008154811061259657612595617e30565b5b9060005260206000200154905060003373ffffffffffffffffffffffffffffffffffffffff166003600084815260200190815260200160002060040160009054906101000a900473ffffffffffffffffffffffffffffffffffffffff1673ffffffffffffffffffffffffffffffffffffffff1614905060003373ffffffffffffffffffffffffffffffffffffffff166003600085815260200190815260200160002060050160009054906101000a900473ffffffffffffffffffffffffffffffffffffffff1673ffffffffffffffffffffffffffffffffffffffff16149050818061267e5750805b61268757600080fd5b6000600460008b8152602001908152602001600020805490509050600060405180608001604052804281526020018b81526020018a81526020013373ffffffffffffffffffffffffffffffffffffffff16815250905060005b828110156127fc576000600460008e8152602001908152602001600020828154811061270f5761270e617e30565b5b906000526020600020015490508260036000838152602001908152602001600020600901600060036000858152602001908152602001600020600a0154815260200190815260200160002060008201518160000155602082015181600101556040820151816002015560608201518160030160006101000a81548173ffffffffffffffffffffffffffffffffffffffff021916908373ffffffffffffffffffffffffffffffffffffffff16021790555090505060036000828152602001908152602001600020600a0160008154809291906127e990617bc7565b91905055505080806001019150506126e0565b507f332d23c9d7e8e885c3f1696ae3b424351c1e9e2a4cc531396d6848b79a0dac988b60405161282c9190616f28565b60405180910390a15050505050505050505050565b813373ffffffffffffffffffffffffffffffffffffffff166006600083815260200190815260200160002060010160009054906101000a900473ffffffffffffffffffffffffffffffffffffffff1673ffffffffffffffffffffffffffffffffffffffff16146128b057600080fd5b82600260038111156128c5576128c4617c0f565b5b6006600083815260200190815260200160002060040160009054906101000a900460ff1660038111156128fb576128fa617c0f565b5b1461290557600080fd5b82600660008681526020019081526020016000206008018190555060036006600086815260200190815260200160002060040160006101000a81548160ff0219169083600381111561295a57612959617c0f565b5b02179055507f9830dea00c267e7b6913a128e9a399b9272b3c2b650ac4c447ce2b876b1004888460405161298e9190616f28565b60405180910390a150505050565b60006129c87f000000000000000000000000000000000000000000000000000000000000000083612ae8565b9050919050565b6129d881615f1e565b60006003600083815260200190815260200160002060070154905060006129fd612a8c565b905060006064600184612a109190617e5f565b612a1a9190617ed0565b90508173ffffffffffffffffffffffffffffffffffffffff166108fc829081150290604051600060405180830381858888f19350505050158015612a62573d6000803e3d6000fd5b5050505050565b612a7281616192565b50565b612a7e81615cf1565b50565b612a8a33616203565b565b60008060009054906101000a900473ffffffffffffffffffffffffffffffffffffffff16905090565b6000612ae17f000000000000000000000000000000000000000000000000000000000000000083612ae8565b9050919050565b60006007600084815260200190815260200160002060000160008373ffffffffffffffffffffffffffffffffffffffff1673ffffffffffffffffffffffffffffffffffffffff16815260200190815260200160002060009054906101000a900460ff16905092915050565b7f000000000000000000000000000000000000000000000000000000000000000081565b6000612ba37f000000000000000000000000000000000000000000000000000000000000000033612ae8565b905090565b612bb13361142e565b612bf0576040517f08c379a0000000000000000000000000000000000000000000000000000000008152600401612be790617da4565b60405180910390fd5b612bf981616274565b50565b612c053361142e565b612c44576040517f08c379a0000000000000000000000000000000000000000000000000000000008152600401612c3b90617da4565b60405180910390fd5b612c4c615010565b612c5682826164c7565b5050565b6000801b81565b612c6a33615c0f565b565b612c7533615120565b565b6000612ca37f000000000000000000000000000000000000000000000000000000000000000083612ae8565b9050919050565b600060608060608085600060036000838152602001908152602001600020600a015403612cd657600080fd5b600060036000898152602001908152602001600020905080600a0154965060008767ffffffffffffffff811115612d1057612d0f616c8a565b5b604051908082528060200260200182016040528015612d3e5781602001602082028036833780820191505090505b50905060008867ffffffffffffffff811115612d5d57612d5c616c8a565b5b604051908082528060200260200182016040528015612d8b5781602001602082028036833780820191505090505b50905060008967ffffffffffffffff811115612daa57612da9616c8a565b5b604051908082528060200260200182016040528015612dd85781602001602082028036833780820191505090505b50905060008a67ffffffffffffffff811115612df757612df6616c8a565b5b604051908082528060200260200182016040528015612e255781602001602082028036833780820191505090505b50905060005b85600a0154811015612f3c57600086600901600083815260200190815260200160002090508060000154868381518110612e6857612e67617e30565b5b6020026020010181815250508060020154858381518110612e8c57612e8b617e30565b5b6020026020010181815250508060010154848381518110612eb057612eaf617e30565b5b6020026020010181815250508060030160009054906101000a900473ffffffffffffffffffffffffffffffffffffffff16838381518110612ef457612ef3617e30565b5b602002602001019073ffffffffffffffffffffffffffffffffffffffff16908173ffffffffffffffffffffffffffffffffffffffff1681525050508080600101915050612e2b565b5083838383809a50819b50829c50839d505050505050505050505091939590929450565b612f6981615b9e565b50565b80600060046000838152602001908152602001600020600081548110612f9557612f94617e30565b5b9060005260206000200154905060036006811115612fb657612fb5617c0f565b5b6003600083815260200190815260200160002060030160009054906101000a900460ff166006811115612fec57612feb617c0f565b5b14612ff657600080fd5b8260006004600083815260200190815260200160002060008154811061301f5761301e617e30565b5b9060005260206000200154905060003373ffffffffffffffffffffffffffffffffffffffff166003600084815260200190815260200160002060040160009054906101000a900473ffffffffffffffffffffffffffffffffffffffff1673ffffffffffffffffffffffffffffffffffffffff161490508061309f57600080fd5b60006004600088815260200190815260200160002080549050905060005b81811015613146576000600460008a815260200190815260200160002082815481106130ec576130eb617e30565b5b9060005260206000200154905060046003600083815260200190815260200160002060030160006101000a81548160ff0219169083600681111561313357613132617c0f565b5b02179055505080806001019150506130bd565b507ff00b9a5725b80c54016f42114f6ed7792d22eecb116011c4afac29c57bef6c95876040516131769190616f28565b60405180910390a150505050505050565b816000600460008381526020019081526020016000206000815481106131b0576131af617e30565b5b90600052602060002001549050600160068111156131d1576131d0617c0f565b5b6003600083815260200190815260200160002060030160009054906101000a900460ff16600681111561320757613206617c0f565b5b1461321157600080fd5b8360006004600083815260200190815260200160002060008154811061323a57613239617e30565b5b9060005260206000200154905060003373ffffffffffffffffffffffffffffffffffffffff166003600084815260200190815260200160002060040160009054906101000a900473ffffffffffffffffffffffffffffffffffffffff1673ffffffffffffffffffffffffffffffffffffffff16149050806132ba57600080fd5b60006004600089815260200190815260200160002080549050905060005b8181101561337c576000600460008b8152602001908152602001600020828154811061330757613306617e30565b5b9060005260206000200154905060026003600083815260200190815260200160002060030160006101000a81548160ff0219169083600681111561334e5761334d617c0f565b5b02179055508860036000838152602001908152602001600020600701819055505080806001019150506132d8565b507fa96ae0fc3224ebd79eebfe54bd130cc9cb94416cddd1f2386115e00b72532468886040516133ac9190616f28565b60405180910390a15050505050505050565b6133c781614f9f565b50565b806000600460008381526020019081526020016000206000815481106133f3576133f2617e30565b5b906000526020600020015490506000600681111561341457613413617c0f565b5b6003600083815260200190815260200160002060030160009054906101000a900460ff16600681111561344a57613449617c0f565b5b1461345457600080fd5b8260006004600083815260200190815260200160002060008154811061347d5761347c617e30565b5b9060005260206000200154905060003373ffffffffffffffffffffffffffffffffffffffff166003600084815260200190815260200160002060040160009054906101000a900473ffffffffffffffffffffffffffffffffffffffff1673ffffffffffffffffffffffffffffffffffffffff16149050806134fd57600080fd5b60006004600088815260200190815260200160002080549050905060005b818110156135bf576000600460008a8152602001908152602001600020828154811061354a57613549617e30565b5b9060005260206000200154905060016003600083815260200190815260200160002060030160006101000a81548160ff0219169083600681111561359157613590617c0f565b5b021790555042600360008381526020019081526020016000206008018190555050808060010191505061351b565b507f9b3b66e2380b690bae22c73ef1428fb0c91e72fe14a4b6defa13035214187aff876040516135ef9190616f28565b60405180910390a150505050505050565b61360933615191565b565b606060006060600554851115613656576040517f08c379a000000000000000000000000000000000000000000000000000000000815260040161364d90617d38565b60405180910390fd5b600660008681526020019081526020016000206009015484106136ae576040517f08c379a00000000000000000000000000000000000000000000000000000000081526004016136a590617f4d565b60405180910390fd5b60066000868152602001908152602001600020600a01600085815260200190815260200160002060030160066000878152602001908152602001600020600a01600086815260200190815260200160002060020160009054906101000a900460ff1660066000888152602001908152602001600020600a016000878152602001908152602001600020600401828054613746906178e9565b80601f0160208091040260200160405190810160405280929190818152602001828054613772906178e9565b80156137bf5780601f10613794576101008083540402835291602001916137bf565b820191906000526020600020905b8154815290600101906020018083116137a257829003601f168201915b505050505092508080546137d2906178e9565b80601f01602080910402602001604051908101604052809291908181526020018280546137fe906178e9565b801561384b5780601f106138205761010080835404028352916020019161384b565b820191906000526020600020905b81548152906001019060200180831161382e57829003601f168201915b505050505090508093508194508295505050509250925092565b61386e33615d62565b565b600061389c7f000000000000000000000000000000000000000000000000000000000000000033612ae8565b905090565b806000600460008381526020019081526020016000206000815481106138ca576138c9617e30565b5b90600052602060002001549050600460068111156138eb576138ea617c0f565b5b6003600083815260200190815260200160002060030160009054906101000a900460ff16600681111561392157613920617c0f565b5b1461392b57600080fd5b8260006004600083815260200190815260200160002060008154811061395457613953617e30565b5b90600052602060002001549050600060036000838152602001908152602001600020600a01540361398457600080fd5b846000600460008381526020019081526020016000206000815481106139ad576139ac617e30565b5b9060005260206000200154905060003373ffffffffffffffffffffffffffffffffffffffff166003600084815260200190815260200160002060060160009054906101000a900473ffffffffffffffffffffffffffffffffffffffff1673ffffffffffffffffffffffffffffffffffffffff1614905080613a2d57600080fd5b6000600460008a815260200190815260200160002080549050905060005b81811015613ad4576000600460008c81526020019081526020016000208281548110613a7a57613a79617e30565b5b9060005260206000200154905060056003600083815260200190815260200160002060030160006101000a81548160ff02191690836006811115613ac157613ac0617c0f565b5b0217905550508080600101915050613a4b565b507fa8142743f8f70a4c26f3691cf4ed59718381fb2f18070ec52be1f1022d85555789604051613b049190616f28565b60405180910390a1505050505050505050565b613b2082611791565b613b2981615202565b613b338383615310565b50505050565b606060046000838152602001908152602001600020805480602002602001604051908101604052809291908181526020018280548015613b9857602002820191906000526020600020905b815481526020019060010190808311613b84575b50505050509050919050565b600080606060008060008060006002548911158015613bc4575060008914155b613c03576040517f08c379a0000000000000000000000000000000000000000000000000000000008152600401613bfa90617fb9565b60405180910390fd5b6000600460008b81526020019081526020016000206001600460008d815260200190815260200160002080549050613c3b9190617fd9565b81548110613c4c57613c4b617e30565b5b90600052602060002001549050613c62816140db565b909192939495969750905050809850819950829a50839b50849c50859d50869e5050505050505050600460008b815260200190815260200160002080549050985050919395975091939597565b600080600080600080613cc0612b77565b9550613cca611fa7565b9450613cd4613870565b9350613cde613d20565b9250613ce86117d3565b9150613cf2611461565b9050909192939495565b7f000000000000000000000000000000000000000000000000000000000000000081565b6000613d4c7f000000000000000000000000000000000000000000000000000000000000000033612ae8565b905090565b8360026003811115613d6657613d65617c0f565b5b6006600083815260200190815260200160002060040160009054906101000a900460ff166003811115613d9c57613d9b617c0f565b5b14613da657600080fd5b843373ffffffffffffffffffffffffffffffffffffffff166006600083815260200190815260200160002060010160009054906101000a900473ffffffffffffffffffffffffffffffffffffffff1673ffffffffffffffffffffffffffffffffffffffff1614613e1557600080fd5b8560006002811115613e2a57613e29617c0f565b5b60066000838152602001908152602001600020600b0160020160009054906101000a900460ff166002811115613e6357613e62617c0f565b5b14613e6d57600080fd5b6064841115613eb1576040517f08c379a0000000000000000000000000000000000000000000000000000000008152600401613ea890617e10565b60405180910390fd5b60066000888152602001908152602001600020600b0173__$7b761d8731322031916806c1afa4b7efe5$__63c77c31fa90918888886040518563ffffffff1660e01b8152600401613f059493929190618075565b60006040518083038186803b158015613f1d57600080fd5b505af4158015613f31573d6000803e3d6000fd5b505050507fcf9b82493d27751c082844bdd5f86709a115d8bbc98b6ebb688d96ff15837cc48787604051613f66929190618116565b60405180910390a150505050505050565b803373ffffffffffffffffffffffffffffffffffffffff166006600083815260200190815260200160002060010160009054906101000a900473ffffffffffffffffffffffffffffffffffffffff1673ffffffffffffffffffffffffffffffffffffffff1614613fe657600080fd5b8160016002811115613ffb57613ffa617c0f565b5b60066000838152602001908152602001600020600b0160020160009054906101000a900460ff16600281111561403457614033617c0f565b5b1461403e57600080fd5b600260066000858152602001908152602001600020600b0160020160006101000a81548160ff0219169083600281111561407b5761407a617c0f565b5b0217905550600060066000858152602001908152602001600020600b01600101819055507fa54024b3473fdbaabff7d6742d51ced76d6ec5df786a4b361595bb0623e8d167836040516140ce9190616f28565b60405180910390a1505050565b600080606060008060008060008060006001548b111580156140fe575060008b14155b61413d576040517f08c379a00000000000000000000000000000000000000000000000000000000081526004016141349061818b565b60405180910390fd5b6000600360008d8152602001908152602001600020905080600001549a50806002015499506000600681111561417657614175617c0f565b5b8160030160009054906101000a900460ff16600681111561419a57614199617c0f565b5b036141dc576040518060400160405280600c81526020017f4d616e756661637475726564000000000000000000000000000000000000000081525098506144b9565b600160068111156141f0576141ef617c0f565b5b8160030160009054906101000a900460ff16600681111561421457614213617c0f565b5b03614256576040518060400160405280600681526020017f5061636b6564000000000000000000000000000000000000000000000000000081525098506144b8565b6002600681111561426a57614269617c0f565b5b8160030160009054906101000a900460ff16600681111561428e5761428d617c0f565b5b036142d0576040518060400160405280600781526020017f466f7253616c650000000000000000000000000000000000000000000000000081525098506144b7565b600360068111156142e4576142e3617c0f565b5b8160030160009054906101000a900460ff16600681111561430857614307617c0f565b5b0361434a576040518060400160405280600481526020017f536f6c640000000000000000000000000000000000000000000000000000000081525098506144b6565b6004600681111561435e5761435d617c0f565b5b8160030160009054906101000a900460ff16600681111561438257614381617c0f565b5b036143c4576040518060400160405280600781526020017f536869707065640000000000000000000000000000000000000000000000000081525098506144b5565b600560068111156143d8576143d7617c0f565b5b8160030160009054906101000a900460ff1660068111156143fc576143fb617c0f565b5b0361443e576040518060400160405280600881526020017f526563656976656400000000000000000000000000000000000000000000000081525098506144b4565b60068081111561445157614450617c0f565b5b8160030160009054906101000a900460ff16600681111561447557614474617c0f565b5b036144b3576040518060400160405280600981526020017f507572636861736564000000000000000000000000000000000000000000000081525098505b5b5b5b5b5b5b8060030160019054906101000a900473ffffffffffffffffffffffffffffffffffffffff1697508060040160009054906101000a900473ffffffffffffffffffffffffffffffffffffffff1696508060050160009054906101000a900473ffffffffffffffffffffffffffffffffffffffff1695508060060160009054906101000a900473ffffffffffffffffffffffffffffffffffffffff169450806007015493508060080154925080600a01549150509193959799509193959799565b61458181615c80565b50565b61458d33615915565b565b61459833616192565b565b7f000000000000000000000000000000000000000000000000000000000000000081565b6145c6615dd3565b600073ffffffffffffffffffffffffffffffffffffffff168173ffffffffffffffffffffffffffffffffffffffff16036146385760006040517f1e4fbdf700000000000000000000000000000000000000000000000000000000815260040161462f9190617187565b60405180910390fd5b61464181615e5a565b50565b61464d81616203565b50565b61465933612ab5565b614698576040517f08c379a000000000000000000000000000000000000000000000000000000000815260040161468f906181f7565b60405180910390fd5b6146a0615010565b6146a981611f74565b6146b257600080fd5b600060036000600460008681526020019081526020016000206000815481106146de576146dd617e30565b5b906000526020600020015481526020019081526020016000209050600081600001549050600082600701549050600060046000878152602001908152602001600020805490509050600081836147349190617e5f565b905060008560030160019054906101000a900473ffffffffffffffffffffffffffffffffffffffff169050813410156147a2576040517f08c379a000000000000000000000000000000000000000000000000000000000815260040161479990618263565b60405180910390fd5b600082346147b09190617fd9565b905060008114614802573373ffffffffffffffffffffffffffffffffffffffff166108fc829081150290604051600060405180830381858888f19350505050158015614800573d6000803e3d6000fd5b505b61480c8989616636565b6006600087815260200190815260200160002060010160009054906101000a900473ffffffffffffffffffffffffffffffffffffffff1673ffffffffffffffffffffffffffffffffffffffff168273ffffffffffffffffffffffffffffffffffffffff16036148c1578173ffffffffffffffffffffffffffffffffffffffff166108fc849081150290604051600060405180830381858888f193505050501580156148bb573d6000803e3d6000fd5b506148c2565b5b505050505050505050565b6000806060806060600080606060008060006005548c1115614924576040517f08c379a000000000000000000000000000000000000000000000000000000000815260040161491b90617d38565b60405180910390fd5b600660008d815260200190815260200160002060010160009054906101000a900473ffffffffffffffffffffffffffffffffffffffff169a50600660008d815260200190815260200160002060020160009054906101000a900473ffffffffffffffffffffffffffffffffffffffff169950600660008d815260200190815260200160002060030180546149b7906178e9565b80601f01602080910402602001604051908101604052809291908181526020018280546149e3906178e9565b8015614a305780601f10614a0557610100808354040283529160200191614a30565b820191906000526020600020905b815481529060010190602001808311614a1357829003601f168201915b50505050509850600660008d81526020019081526020016000206005016000018054614a5b906178e9565b80601f0160208091040260200160405190810160405280929190818152602001828054614a87906178e9565b8015614ad45780601f10614aa957610100808354040283529160200191614ad4565b820191906000526020600020905b815481529060010190602001808311614ab757829003601f168201915b5050505050975060006003811115614aef57614aee617c0f565b5b600660008e815260200190815260200160002060040160009054906101000a900460ff166003811115614b2557614b24617c0f565b5b03614b67576040518060400160405280600781526020017f43726561746564000000000000000000000000000000000000000000000000008152509650614d95565b60016003811115614b7b57614b7a617c0f565b5b600660008e815260200190815260200160002060040160009054906101000a900460ff166003811115614bb157614bb0617c0f565b5b03614bf3576040518060400160405280600681526020017f54657374656400000000000000000000000000000000000000000000000000008152509650614d94565b60026003811115614c0757614c06617c0f565b5b600660008e815260200190815260200160002060040160009054906101000a900460ff166003811115614c3d57614c3c617c0f565b5b03614c7f576040518060400160405280600881526020017f417070726f7665640000000000000000000000000000000000000000000000008152509650614d93565b600380811115614c9257614c91617c0f565b5b600660008e815260200190815260200160002060040160009054906101000a900460ff166003811115614cc857614cc7617c0f565b5b03614d0a576040518060400160405280600781526020017f466f7253616c65000000000000000000000000000000000000000000000000008152509650614d92565b600380811115614d1d57614d1c617c0f565b5b600660008e815260200190815260200160002060040160009054906101000a900460ff166003811115614d5357614d52617c0f565b5b03614d91576040518060400160405280600781526020017f466f7253616c650000000000000000000000000000000000000000000000000081525096505b5b5b5b5b600660008d8152602001908152602001600020600b0173__$7b761d8731322031916806c1afa4b7efe5$__62ffb26290916040518263ffffffff1660e01b8152600401614de29190618283565b600060405180830381865af4158015614dff573d6000803e3d6000fd5b505050506040513d6000823e3d601f19601f82011682018060405250810190614e28919061830e565b9350600660008d8152602001908152602001600020600b016001015492506000600660008e81526020019081526020016000206008015414159550600660008d8152602001908152602001600020600801549450600660008d8152602001908152602001600020600901549150600660008d8152602001908152602001600020600b0173__$7b761d8731322031916806c1afa4b7efe5$__6358c4da4990916040518263ffffffff1660e01b8152600401614ee39190618283565b602060405180830381865af4158015614f00573d6000803e3d6000fd5b505050506040513d601f19601f82011682018060405250810190614f249190617c53565b905091939597999b90929496989a50565b60007f01ffc9a7000000000000000000000000000000000000000000000000000000007bffffffffffffffffffffffffffffffffffffffffffffffffffffffff1916827bffffffffffffffffffffffffffffffffffffffffffffffffffffffff1916149050919050565b614fc97f000000000000000000000000000000000000000000000000000000000000000082615310565b508073ffffffffffffffffffffffffffffffffffffffff167fe3f5ed5f263f1f01764a96edfc7d025f511ec5f7d180e8816908b78bcf74f09860405160405180910390a250565b615018611f53565b1561504f576040517fd93c066500000000000000000000000000000000000000000000000000000000815260040160405180910390fd5b565b806001600381111561506657615065617c0f565b5b6006600083815260200190815260200160002060040160009054906101000a900460ff16600381111561509c5761509b617c0f565b5b146150a657600080fd5b60026006600084815260200190815260200160002060040160006101000a81548160ff021916908360038111156150e0576150df617c0f565b5b02179055507f3ad93af63cb7967b23e4fb500b7d7d28b07516325dcf341f88bebf959d82c1cb826040516151149190616f28565b60405180910390a15050565b61514a7f000000000000000000000000000000000000000000000000000000000000000082615216565b508073ffffffffffffffffffffffffffffffffffffffff167f97069a05372df648feb174cc125711b2c72a81450a1ab2769c8faf49917d7fd260405160405180910390a250565b6151bb7f000000000000000000000000000000000000000000000000000000000000000082615216565b508073ffffffffffffffffffffffffffffffffffffffff167fddbf200aa634dc3fb81cfd68583dd1040d1c751d335e1d86b631bde3e977fea860405160405180910390a250565b6152138161520e615308565b6168a4565b50565b60006152228383612ae8565b6152fd5760016007600085815260200190815260200160002060000160008473ffffffffffffffffffffffffffffffffffffffff1673ffffffffffffffffffffffffffffffffffffffff16815260200190815260200160002060006101000a81548160ff02191690831515021790555061529a615308565b73ffffffffffffffffffffffffffffffffffffffff168273ffffffffffffffffffffffffffffffffffffffff16847f2f8788117e7eff1d82e926ec794901d17c78024a50270940304540a733656f0d60405160405180910390a460019050615302565b600090505b92915050565b600033905090565b600061531c8383612ae8565b156153f85760006007600085815260200190815260200160002060000160008473ffffffffffffffffffffffffffffffffffffffff1673ffffffffffffffffffffffffffffffffffffffff16815260200190815260200160002060006101000a81548160ff021916908315150217905550615395615308565b73ffffffffffffffffffffffffffffffffffffffff168273ffffffffffffffffffffffffffffffffffffffff16847ff6391f5c32d9c69d2a47ea670b442974b53935d1edc7fd64eb21e047a839171b60405160405180910390a4600190506153fd565b600090505b92915050565b6005600081548092919061541690617bc7565b9190505550600554600660006005548152602001908152602001600020600001819055503360066000600554815260200190815260200160002060010160006101000a81548173ffffffffffffffffffffffffffffffffffffffff021916908373ffffffffffffffffffffffffffffffffffffffff1602179055503360066000600554815260200190815260200160002060020160006101000a81548173ffffffffffffffffffffffffffffffffffffffff021916908373ffffffffffffffffffffffffffffffffffffffff16021790555083600660006005548152602001908152602001600020600301908161550d9190617ac6565b50600060066000600554815260200190815260200160002060040160006101000a81548160ff0219169083600381111561554a57615549617c0f565b5b021790555060405180606001604052808481526020018381526020018281525060066000600554815260200190815260200160002060050160008201518160000190816155979190617ac6565b5060208201518160010190816155ad9190617ac6565b5060408201518160020190816155c39190617ac6565b509050506000600660006005548152602001908152602001600020600801819055506001600660006005548152602001908152602001600020600b01600301819055507f4bea4fa538d41a7b7fb10bb3405cf3e168122aa3438625bbf0ac6dde64fbdb0c6005546040516156379190616f28565b60405180910390a150505050565b60055484111561568a576040517f08c379a00000000000000000000000000000000000000000000000000000000081526004016156819061789a565b60405180910390fd5b60006040518060a001604052803373ffffffffffffffffffffffffffffffffffffffff16815260200142815260200184151581526020018581526020018381525090508060066000878152602001908152602001600020600a0160006006600089815260200190815260200160002060090154815260200190815260200160002060008201518160000160006101000a81548173ffffffffffffffffffffffffffffffffffffffff021916908373ffffffffffffffffffffffffffffffffffffffff1602179055506020820151816001015560408201518160020160006101000a81548160ff02191690831515021790555060608201518160030190816157919190617ac6565b5060808201518160040190816157a79190617ac6565b509050506006600086815260200190815260200160002060090160008154809291906157d290617bc7565b9190505550600060038111156157eb576157ea617c0f565b5b6006600087815260200190815260200160002060040160009054906101000a900460ff16600381111561582157615820617c0f565b5b036158665760016006600087815260200190815260200160002060040160006101000a81548160ff021916908360038111156158605761585f617c0f565b5b02179055505b7f81d5f9bced9b9d1723f40796f43346ab2f3d2147b09cc27e573f3eb3b5875864856040516158959190616f28565b60405180910390a15050505050565b6158ce7f000000000000000000000000000000000000000000000000000000000000000082615216565b508073ffffffffffffffffffffffffffffffffffffffff167f561138658ca49a8540dc70dcfe64c9026c1c5b9344642242dd6562970f9c127860405160405180910390a250565b61593f7f000000000000000000000000000000000000000000000000000000000000000082615310565b508073ffffffffffffffffffffffffffffffffffffffff167fe16181bbb8b138f88a23696ae25f2c63713913e3fc6922b234a08639bf53cbea60405160405180910390a250565b600060026000815461599790617bc7565b919050819055905060005b82811015615b615760006001600081546159bb90617bc7565b919050819055905080600360008381526020019081526020016000206001018190555084600360008381526020019081526020016000206000018190555082600360008381526020019081526020016000206002018190555060006003600083815260200190815260200160002060030160006101000a81548160ff02191690836006811115615a4e57615a4d617c0f565b5b0217905550336003600083815260200190815260200160002060030160016101000a81548173ffffffffffffffffffffffffffffffffffffffff021916908373ffffffffffffffffffffffffffffffffffffffff160217905550336003600083815260200190815260200160002060040160006101000a81548173ffffffffffffffffffffffffffffffffffffffff021916908373ffffffffffffffffffffffffffffffffffffffff160217905550600060036000838152602001908152602001600020600a0181905550600460008481526020019081526020016000208190806001815401808255809150506001900390600052602060002001600090919091909150555080806001019150506159a2565b507fd29d8a68ca7c8c74be5579719d445aabfe230ed6e6a83aff475a663500eb760981604051615b919190616f28565b60405180910390a1505050565b615bc87f000000000000000000000000000000000000000000000000000000000000000082615310565b508073ffffffffffffffffffffffffffffffffffffffff167f126174f6cf49c81cdb4a9214c6b8f037bef55b4ec31e4fc776cea2a1c8a88d5960405160405180910390a250565b615c397f000000000000000000000000000000000000000000000000000000000000000082615310565b508073ffffffffffffffffffffffffffffffffffffffff167f2fed5abf6a80d6dfe30b4895481b2fc5d7dce5f8f7b931832f4a2947d5040c7f60405160405180910390a250565b615caa7f000000000000000000000000000000000000000000000000000000000000000082615216565b508073ffffffffffffffffffffffffffffffffffffffff167f2860b5ba44f983f8f363ee6eeb3c24cbca3096803fbdd5129b9e253f01cac07660405160405180910390a250565b615d1b7f000000000000000000000000000000000000000000000000000000000000000082615310565b508073ffffffffffffffffffffffffffffffffffffffff167fdb7176e79cffef81cb01767dd0447a0b24bb72ca9778d4b245581086b2a7e6db60405160405180910390a250565b615d8c7f000000000000000000000000000000000000000000000000000000000000000082615216565b508073ffffffffffffffffffffffffffffffffffffffff167f28b26e7a3d20aedbc5f8f2ebf7da671c0491723a2b78f47a097b0e46dee0714260405160405180910390a250565b615ddb615308565b73ffffffffffffffffffffffffffffffffffffffff16615df9612a8c565b73ffffffffffffffffffffffffffffffffffffffff1614615e5857615e1c615308565b6040517f118cdaa7000000000000000000000000000000000000000000000000000000008152600401615e4f9190617187565b60405180910390fd5b565b60008060009054906101000a900473ffffffffffffffffffffffffffffffffffffffff169050816000806101000a81548173ffffffffffffffffffffffffffffffffffffffff021916908373ffffffffffffffffffffffffffffffffffffffff1602179055508173ffffffffffffffffffffffffffffffffffffffff168173ffffffffffffffffffffffffffffffffffffffff167f8be0079c531659141344cd1fd0a4f28419497f9722a3daafe3b4186f6b6457e060405160405180910390a35050565b615f273361299c565b615f66576040517f08c379a0000000000000000000000000000000000000000000000000000000008152600401615f5d906183a3565b60405180910390fd5b615f6e615010565b60006003600083815260200190815260200160002060070154905060006003600084815260200190815260200160002060030160019054906101000a900473ffffffffffffffffffffffffffffffffffffffff16905060006003600085815260200190815260200160002060060160009054906101000a900473ffffffffffffffffffffffffffffffffffffffff169050600060646005856160109190617e5f565b61601a9190617ed0565b90506000606460018661602d9190617e5f565b6160379190617ed0565b90508434101561607c576040517f08c379a000000000000000000000000000000000000000000000000000000000815260040161607390618263565b60405180910390fd5b6000853461608a9190617fd9565b9050600081146160dc573373ffffffffffffffffffffffffffffffffffffffff166108fc829081150290604051600060405180830381858888f193505050501580156160da573d6000803e3d6000fd5b505b6160e5876168f5565b8473ffffffffffffffffffffffffffffffffffffffff166108fc838561610b91906183c3565b886161169190617fd9565b9081150290604051600060405180830381858888f19350505050158015616141573d6000803e3d6000fd5b508373ffffffffffffffffffffffffffffffffffffffff166108fc849081150290604051600060405180830381858888f19350505050158015616188573d6000803e3d6000fd5b5050505050505050565b6161bc7f000000000000000000000000000000000000000000000000000000000000000082615216565b508073ffffffffffffffffffffffffffffffffffffffff167f71ae26cad02663e3d92efd6ec56031a80d74a20c0ab4183faa8bf262261c9baa60405160405180910390a250565b61622d7f000000000000000000000000000000000000000000000000000000000000000082615310565b508073ffffffffffffffffffffffffffffffffffffffff167fc8ecc453f78c13ccc7596603b61935f29b99dc15bb91b91647e1ccf2469ad00a60405160405180910390a250565b8060038081111561628857616287617c0f565b5b6006600083815260200190815260200160002060040160009054906101000a900460ff1660038111156162be576162bd617c0f565b5b146162c857600080fd5b816006600082815260200190815260200160002060080154341015616322576040517f08c379a000000000000000000000000000000000000000000000000000000000815260040161631990618263565b60405180910390fd5b60026006600085815260200190815260200160002060040160006101000a81548160ff0219169083600381111561635c5761635b617c0f565b5b0217905550336006600085815260200190815260200160002060010160006101000a81548173ffffffffffffffffffffffffffffffffffffffff021916908373ffffffffffffffffffffffffffffffffffffffff1602179055503360066000858152602001908152602001600020600b0160000160006101000a81548173ffffffffffffffffffffffffffffffffffffffff021916908373ffffffffffffffffffffffffffffffffffffffff1602179055507f761e3276be1dd60429a48581fa8d3df6c90c05fff554645023f8318bc29402b78360405161643d9190616f28565b60405180910390a16000600660008381526020019081526020016000206008015490506000813461646e9190617fd9565b9050600081146164c0573373ffffffffffffffffffffffffffffffffffffffff166108fc829081150290604051600060405180830381858888f193505050501580156164be573d6000803e3d6000fd5b505b5050505050565b81600260038111156164dc576164db617c0f565b5b6006600083815260200190815260200160002060040160009054906101000a900460ff16600381111561651257616511617c0f565b5b1461651c57600080fd5b826001600281111561653157616530617c0f565b5b60066000838152602001908152602001600020600b0160020160009054906101000a900460ff16600281111561656a57616569617c0f565b5b1461657457600080fd5b60066000858152602001908152602001600020600b0173__$7b761d8731322031916806c1afa4b7efe5$__63c77c31fa9091338660006040518563ffffffff1660e01b81526004016165c99493929190618432565b60006040518083038186803b1580156165e157600080fd5b505af41580156165f5573d6000803e3d6000fd5b505050507f74c5d412ef45f2e49816788001b6e27a174bb63e91ade58fd0631869b74a6ec5846040516166289190616f28565b60405180910390a150505050565b8160006004600083815260200190815260200160002060008154811061665f5761665e617e30565b5b90600052602060002001549050600260068111156166805761667f617c0f565b5b6003600083815260200190815260200160002060030160009054906101000a900460ff1660068111156166b6576166b5617c0f565b5b146166c057600080fd5b60006004600086815260200190815260200160002080549050905060005b8181101561686557600060046000888152602001908152602001600020828154811061670d5761670c617e30565b5b90600052602060002001549050600380600083815260200190815260200160002060030160006101000a81548160ff0219169083600681111561675357616752617c0f565b5b0217905550336003600083815260200190815260200160002060030160016101000a81548173ffffffffffffffffffffffffffffffffffffffff021916908373ffffffffffffffffffffffffffffffffffffffff160217905550336003600083815260200190815260200160002060050160006101000a81548173ffffffffffffffffffffffffffffffffffffffff021916908373ffffffffffffffffffffffffffffffffffffffff160217905550856003600083815260200190815260200160002060060160006101000a81548173ffffffffffffffffffffffffffffffffffffffff021916908373ffffffffffffffffffffffffffffffffffffffff1602179055505080806001019150506166de565b507f92f64ca637d023f354075a4be751b169c1a8a9ccb6d33cdd0cb3520543995727856040516168959190616f28565b60405180910390a15050505050565b6168ae8282612ae8565b6168f15780826040517fe2517d3f0000000000000000000000000000000000000000000000000000000081526004016168e892919061847e565b60405180910390fd5b5050565b806005600681111561690a57616909617c0f565b5b6003600083815260200190815260200160002060030160009054906101000a900460ff1660068111156169405761693f617c0f565b5b1461694a57600080fd5b81600060036000838152602001908152602001600020600a01540361696e57600080fd5b60066003600085815260200190815260200160002060030160006101000a81548160ff021916908360068111156169a8576169a7617c0f565b5b0217905550336003600085815260200190815260200160002060030160016101000a81548173ffffffffffffffffffffffffffffffffffffffff021916908373ffffffffffffffffffffffffffffffffffffffff1602179055507f653d56639fee6b566a5c804764e9689de38645f0b733df89a36a1b7b42173dd883604051616a319190616f28565b60405180910390a1505050565b6000604051905090565b600080fd5b600080fd5b6000819050919050565b616a6581616a52565b8114616a7057600080fd5b50565b600081359050616a8281616a5c565b92915050565b600073ffffffffffffffffffffffffffffffffffffffff82169050919050565b6000616ab382616a88565b9050919050565b616ac381616aa8565b8114616ace57600080fd5b50565b600081359050616ae081616aba565b92915050565b60008060408385031215616afd57616afc616a48565b5b6000616b0b85828601616a73565b9250506020616b1c85828601616ad1565b9150509250929050565b60008115159050919050565b616b3b81616b26565b82525050565b6000602082019050616b566000830184616b32565b92915050565b60007fffffffff0000000000000000000000000000000000000000000000000000000082169050919050565b616b9181616b5c565b8114616b9c57600080fd5b50565b600081359050616bae81616b88565b92915050565b600060208284031215616bca57616bc9616a48565b5b6000616bd884828501616b9f565b91505092915050565b600060208284031215616bf757616bf6616a48565b5b6000616c0584828501616a73565b91505092915050565b6000819050919050565b616c2181616c0e565b82525050565b6000602082019050616c3c6000830184616c18565b92915050565b600060208284031215616c5857616c57616a48565b5b6000616c6684828501616ad1565b91505092915050565b600080fd5b600080fd5b6000601f19601f8301169050919050565b7f4e487b7100000000000000000000000000000000000000000000000000000000600052604160045260246000fd5b616cc282616c79565b810181811067ffffffffffffffff82111715616ce157616ce0616c8a565b5b80604052505050565b6000616cf4616a3e565b9050616d008282616cb9565b919050565b600067ffffffffffffffff821115616d2057616d1f616c8a565b5b616d2982616c79565b9050602081019050919050565b82818337600083830152505050565b6000616d58616d5384616d05565b616cea565b905082815260208101848484011115616d7457616d73616c74565b5b616d7f848285616d36565b509392505050565b600082601f830112616d9c57616d9b616c6f565b5b8135616dac848260208601616d45565b91505092915050565b616dbe81616b26565b8114616dc957600080fd5b50565b600081359050616ddb81616db5565b92915050565b60008060008060808587031215616dfb57616dfa616a48565b5b6000616e0987828801616a73565b945050602085013567ffffffffffffffff811115616e2a57616e29616a4d565b5b616e3687828801616d87565b9350506040616e4787828801616dcc565b925050606085013567ffffffffffffffff811115616e6857616e67616a4d565b5b616e7487828801616d87565b91505092959194509250565b616e8981616c0e565b8114616e9457600080fd5b50565b600081359050616ea681616e80565b92915050565b600060208284031215616ec257616ec1616a48565b5b6000616ed084828501616e97565b91505092915050565b60008060408385031215616ef057616eef616a48565b5b6000616efe85828601616e97565b9250506020616f0f85828601616ad1565b9150509250929050565b616f2281616a52565b82525050565b6000602082019050616f3d6000830184616f19565b92915050565b60008060008060808587031215616f5d57616f5c616a48565b5b600085013567ffffffffffffffff811115616f7b57616f7a616a4d565b5b616f8787828801616d87565b945050602085013567ffffffffffffffff811115616fa857616fa7616a4d565b5b616fb487828801616d87565b935050604085013567ffffffffffffffff811115616fd557616fd4616a4d565b5b616fe187828801616d87565b925050606085013567ffffffffffffffff81111561700257617001616a4d565b5b61700e87828801616d87565b91505092959194509250565b600081519050919050565b600082825260208201905092915050565b60005b83811015617054578082015181840152602081019050617039565b60008484015250505050565b600061706b8261701a565b6170758185617025565b9350617085818560208601617036565b61708e81616c79565b840191505092915050565b600060608201905081810360008301526170b38186617060565b905081810360208301526170c78185617060565b905081810360408301526170db8184617060565b9050949350505050565b600080604083850312156170fc576170fb616a48565b5b600061710a85828601616a73565b925050602061711b85828601616a73565b9150509250929050565b60008060006060848603121561713e5761713d616a48565b5b600061714c86828701616a73565b935050602061715d86828701616a73565b925050604061716e86828701616a73565b9150509250925092565b61718181616aa8565b82525050565b600060208201905061719c6000830184617178565b92915050565b600080604083850312156171b9576171b8616a48565b5b60006171c785828601616a73565b925050602083013567ffffffffffffffff8111156171e8576171e7616a4d565b5b6171f485828601616d87565b9150509250929050565b600081519050919050565b600082825260208201905092915050565b6000819050602082019050919050565b61723381616a52565b82525050565b6000617245838361722a565b60208301905092915050565b6000602082019050919050565b6000617269826171fe565b6172738185617209565b935061727e8361721a565b8060005b838110156172af5781516172968882617239565b97506172a183617251565b925050600181019050617282565b5085935050505092915050565b600081519050919050565b600082825260208201905092915050565b6000819050602082019050919050565b6172f181616aa8565b82525050565b600061730383836172e8565b60208301905092915050565b6000602082019050919050565b6000617327826172bc565b61733181856172c7565b935061733c836172d8565b8060005b8381101561736d57815161735488826172f7565b975061735f8361730f565b925050600181019050617340565b5085935050505092915050565b600060a08201905061738f6000830188616f19565b81810360208301526173a1818761725e565b905081810360408301526173b5818661725e565b905081810360608301526173c9818561725e565b905081810360808301526173dd818461731c565b90509695505050505050565b600060608201905081810360008301526174038186617060565b90506174126020830185616b32565b81810360408301526174248184617060565b9050949350505050565b60006020820190508181036000830152617448818461725e565b905092915050565b600061010082019050617466600083018b616f19565b617473602083018a616f19565b81810360408301526174858189617060565b90506174946060830188617178565b6174a16080830187617178565b6174ae60a0830186617178565b6174bb60c0830185617178565b6174c860e0830184616f19565b9998505050505050505050565b600060c0820190506174ea6000830189616b32565b6174f76020830188616b32565b6175046040830187616b32565b6175116060830186616b32565b61751e6080830185616b32565b61752b60a0830184616b32565b979650505050505050565b600061754182616a88565b9050919050565b61755181617536565b811461755c57600080fd5b50565b60008135905061756e81617548565b92915050565b6000806000806080858703121561758e5761758d616a48565b5b600061759c87828801616a73565b94505060206175ad8782880161755f565b935050604085013567ffffffffffffffff8111156175ce576175cd616a4d565b5b6175da87828801616d87565b92505060606175eb87828801616a73565b91505092959194509250565b60006101408201905061760d600083018d616f19565b61761a602083018c616f19565b818103604083015261762c818b617060565b905061763b606083018a617178565b6176486080830189617178565b61765560a0830188617178565b61766260c0830187617178565b61766f60e0830186616f19565b61767d610100830185616f19565b61768b610120830184616f19565b9b9a5050505050505050505050565b6000610160820190506176b0600083018e617178565b6176bd602083018d617178565b81810360408301526176cf818c617060565b905081810360608301526176e3818b617060565b905081810360808301526176f7818a617060565b905061770660a0830189616b32565b61771360c0830188616f19565b81810360e08301526177258187617060565b9050617735610100830186616f19565b617743610120830185616f19565b617751610140830184616f19565b9c9b505050505050505050505050565b8082525050565b61777181616aa8565b82525050565b600060408201905061778c6000830185617761565b6177996020830184617768565b9392505050565b6000815190506177af81616db5565b92915050565b6000602082840312156177cb576177ca616a48565b5b60006177d9848285016177a0565b91505092915050565b7f3500000000000000000000000000000000000000000000000000000000000000600082015250565b6000617818600183617025565b9150617823826177e2565b602082019050919050565b600060208201905081810360008301526178478161780b565b9050919050565b7f3130000000000000000000000000000000000000000000000000000000000000600082015250565b6000617884600283617025565b915061788f8261784e565b602082019050919050565b600060208201905081810360008301526178b381617877565b9050919050565b7f4e487b7100000000000000000000000000000000000000000000000000000000600052602260045260246000fd5b6000600282049050600182168061790157607f821691505b602082108103617914576179136178ba565b5b50919050565b60008190508160005260206000209050919050565b60006020601f8301049050919050565b600082821b905092915050565b60006008830261797c7fffffffffffffffffffffffffffffffffffffffffffffffffffffffffffffffff8261793f565b617986868361793f565b95508019841693508086168417925050509392505050565b6000819050919050565b60006179c36179be6179b984616a52565b61799e565b616a52565b9050919050565b6000819050919050565b6179dd836179a8565b6179f16179e9826179ca565b84845461794c565b825550505050565b600090565b617a066179f9565b617a118184846179d4565b505050565b5b81811015617a3557617a2a6000826179fe565b600181019050617a17565b5050565b601f821115617a7a57617a4b8161791a565b617a548461792f565b81016020851015617a63578190505b617a77617a6f8561792f565b830182617a16565b50505b505050565b600082821c905092915050565b6000617a9d60001984600802617a7f565b1980831691505092915050565b6000617ab68383617a8c565b9150826002028217905092915050565b617acf8261701a565b67ffffffffffffffff811115617ae857617ae7616c8a565b5b617af282546178e9565b617afd828285617a39565b600060209050601f831160018114617b305760008415617b1e578287015190505b617b288582617aaa565b865550617b90565b601f198416617b3e8661791a565b60005b82811015617b6657848901518255600182019150602085019450602081019050617b41565b86831015617b835784890151617b7f601f891682617a8c565b8355505b6001600288020188555050505b505050505050565b7f4e487b7100000000000000000000000000000000000000000000000000000000600052601160045260246000fd5b6000617bd282616a52565b91507fffffffffffffffffffffffffffffffffffffffffffffffffffffffffffffffff8203617c0457617c03617b98565b5b600182019050919050565b7f4e487b7100000000000000000000000000000000000000000000000000000000600052602160045260246000fd5b600081519050617c4d81616a5c565b92915050565b600060208284031215617c6957617c68616a48565b5b6000617c7784828501617c3e565b91505092915050565b7f3200000000000000000000000000000000000000000000000000000000000000600082015250565b6000617cb6600183617025565b9150617cc182617c80565b602082019050919050565b60006020820190508181036000830152617ce581617ca9565b9050919050565b7f3132000000000000000000000000000000000000000000000000000000000000600082015250565b6000617d22600283617025565b9150617d2d82617cec565b602082019050919050565b60006020820190508181036000830152617d5181617d15565b9050919050565b7f3400000000000000000000000000000000000000000000000000000000000000600082015250565b6000617d8e600183617025565b9150617d9982617d58565b602082019050919050565b60006020820190508181036000830152617dbd81617d81565b9050919050565b7f3131000000000000000000000000000000000000000000000000000000000000600082015250565b6000617dfa600283617025565b9150617e0582617dc4565b602082019050919050565b60006020820190508181036000830152617e2981617ded565b9050919050565b7f4e487b7100000000000000000000000000000000000000000000000000000000600052603260045260246000fd5b6000617e6a82616a52565b9150617e7583616a52565b9250828202617e8381616a52565b91508282048414831517617e9a57617e99617b98565b5b5092915050565b7f4e487b7100000000000000000000000000000000000000000000000000000000600052601260045260246000fd5b6000617edb82616a52565b9150617ee683616a52565b925082617ef657617ef5617ea1565b5b828204905092915050565b7f3133000000000000000000000000000000000000000000000000000000000000600082015250565b6000617f37600283617025565b9150617f4282617f01565b602082019050919050565b60006020820190508181036000830152617f6681617f2a565b9050919050565b7f3700000000000000000000000000000000000000000000000000000000000000600082015250565b6000617fa3600183617025565b9150617fae82617f6d565b602082019050919050565b60006020820190508181036000830152617fd281617f96565b9050919050565b6000617fe482616a52565b9150617fef83616a52565b925082820390508181111561800757618006617b98565b5b92915050565b61801681617536565b82525050565b600082825260208201905092915050565b60006180388261701a565b618042818561801c565b9350618052818560208601617036565b61805b81616c79565b840191505092915050565b61806f81616a52565b82525050565b600060808201905061808a6000830187617761565b618097602083018661800d565b81810360408301526180a9818561802d565b90506180b86060830184618066565b95945050505050565b60006180dc6180d76180d284616a88565b61799e565b616a88565b9050919050565b60006180ee826180c1565b9050919050565b6000618100826180e3565b9050919050565b618110816180f5565b82525050565b600060408201905061812b6000830185616f19565b6181386020830184618107565b9392505050565b7f3800000000000000000000000000000000000000000000000000000000000000600082015250565b6000618175600183617025565b91506181808261813f565b602082019050919050565b600060208201905081810360008301526181a481618168565b9050919050565b7f3300000000000000000000000000000000000000000000000000000000000000600082015250565b60006181e1600183617025565b91506181ec826181ab565b602082019050919050565b60006020820190508181036000830152618210816181d4565b9050919050565b7f3900000000000000000000000000000000000000000000000000000000000000600082015250565b600061824d600183617025565b915061825882618217565b602082019050919050565b6000602082019050818103600083015261827c81618240565b9050919050565b60006020820190506182986000830184617761565b92915050565b60006182b16182ac84616d05565b616cea565b9050828152602081018484840111156182cd576182cc616c74565b5b6182d8848285617036565b509392505050565b600082601f8301126182f5576182f4616c6f565b5b815161830584826020860161829e565b91505092915050565b60006020828403121561832457618323616a48565b5b600082015167ffffffffffffffff81111561834257618341616a4d565b5b61834e848285016182e0565b91505092915050565b7f3100000000000000000000000000000000000000000000000000000000000000600082015250565b600061838d600183617025565b915061839882618357565b602082019050919050565b600060208201905081810360008301526183bc81618380565b9050919050565b60006183ce82616a52565b91506183d983616a52565b92508282019050808211156183f1576183f0617b98565b5b92915050565b6000819050919050565b600061841c618417618412846183f7565b61799e565b616a52565b9050919050565b61842c81618401565b82525050565b60006080820190506184476000830187617761565b618454602083018661800d565b8181036040830152618466818561802d565b90506184756060830184618423565b95945050505050565b60006040820190506184936000830185617178565b6184a06020830184616c18565b939250505056fea26469706673582212209e36b5bb3c605a70dcdfe20e5db1db4760c8884bee37484e8f6cbae3aed7784c64736f6c63430008180033",
  "linkReferences": {
    "contracts/utils/Partnerships.sol": {
      "Partnerships": [
        {
          "length": 20,
          "start": 6778
        },
        {
          "length": 20,
          "start": 8633
        },
        {
          "length": 20,
          "start": 9694
        },
        {
          "length": 20,
          "start": 18087
        },
        {
          "length": 20,
          "start": 21899
        },
        {
          "length": 20,
          "start": 22155
        },
        {
          "length": 20,
          "start": 28010
        }
      ]
    }
  },
  "deployedLinkReferences": {
    "contracts/utils/Partnerships.sol": {
      "Partnerships": [
        {
          "length": 20,
          "start": 4764
        },
        {
          "length": 20,
          "start": 6619
        },
        {
          "length": 20,
          "start": 7680
        },
        {
          "length": 20,
          "start": 16073
        },
        {
          "length": 20,
          "start": 19885
        },
        {
          "length": 20,
          "start": 20141
        },
        {
          "length": 20,
          "start": 25996
        }
      ]
    }
  }
}